:020000040800F2
:1000000088070020E5010008B3240008AB2400089D
:10001000AF240008A11300084D27000800000000CD
:10002000000000000000000000000000E1240008C3
:10003000CD13000800000000B5240008E3240008E8
:10004000FF010008FF010008FF010008FF01000890
:10005000FF010008FF010008FF010008FF01000880
:10006000FF010008FF010008FF010008A5130008B8
:10007000FF010008FF010008FF010008FF01000860
:10008000FF010008FF010008FF010008FF01000850
:10009000FF010008FF010008FF010008FF01000840
:1000A000FF010008FF010008FF010008FF01000830
:1000B000FF010008FF010008FF010008FF01000820
:1000C000FF010008FF010008FF010008FF01000810
:1000D000FF0100083D270008FF010008FF0100089C
:1000E000FF010008FF010008FF010008FF010008F0
:1000F000FF010008FF010008FF010008FF010008E0
:10010000FF010008FF010008FF010008FF010008CF
:10011000FF010008FF010008FF010008FF010008BF
:10012000FF010008FF010008FF010008FF010008AF
:1001300000F002F800F047F80AA090E8000C8244B2
:100140008344AAF10107DA4501D100F03CF8AFF28F
:10015000090EBAE80F0013F0010F18BFFB1A43F0A5
:1001600001031847802D0000A02D0000103A24BF85
:1001700078C878C1FAD8520724BF30C830C144BF0C
:1001800004680C607047000000230024002500264E
:10019000103A28BF78C1FBD8520728BF30C148BFEA
:1001A0000B607047662902F04586002070471FB536
:1001B00000F018FB04000020002102F0BBFBE0600F
:1001C0001FBD10B510BD00F025FC1146FFF7EFFF75
:1001D00002F03AFB00F043FC03B4FFF7F2FF03BC6C
:1001E00002F0EDFA0948804709480047FEE7FEE7BC
:1001F000FEE7FEE7FEE7FEE7FEE7FEE7FEE7FEE7D7
:1002000004480549054A064B70470000EB240008E6
:1002100031010008880100208807002088030020A1
:1002200088030020704700000FB4044910B503AAEA
:10023000029800F0C5FA10BC5DF814FB080000201D
:100240002DE9F0474FF0000A89460446C0F820A087
:100250002046E1688847002876D0252806D0D4E9D2
:1002600001219047206A401C2062F1E7E1682046A6
:1002700000258847C4F81CA006460027C4F818A02B
:100280002A2E09D0304602F093FA38B304EB8708DF
:10029000303EC8F8186019E059F8041B204604EBFA
:1002A00087029161E1688847012F064618D1E0690D
:1002B000002820DA25F020051DE0D8F8180000EB12
:1002C000800006EB40003038C8F818002046E1688E
:1002D0008847064602F06CFA0028EED1012F0AD0BA
:1002E0002E2E08D12046E16888477F1C0646022F43
:1002F00045F02005C4DBA069002803DA404245F040
:100300000105A061E80701D025F01005B6B1A6F1FE
:100310004100192802D8203645F400654A46314686
:10032000204625604D46FFF73DFF58B1012806D015
:10033000ED1D25F0070000F1080989E704E005F14B
:10034000040985E730468AE7206ABDE8F0874FF068
:10035000000200B5134694469646203922BFA0E815
:100360000C50A0E80C50B1F12001BFF4F7AF090721
:1003700028BFA0E80C5048BF0CC05DF804EB890012
:1003800028BF40F8042B08BF704748BF20F8022B55
:1003900011F0804F18BF00F8012B7047704770476D
:1003A0007047704770472DE9FF4F0C461E464FF0CF
:1003B000FF378BB0D2E90001DDF860800A908A46F1
:1003C000C1F30A5505B93D46002108464FF000002B
:1003D000BAF1000F00F4400005DA00EB80004FF4A2
:1003E000400101EA50004FEA9059B9F1010F00DDD8
:1003F000B9460A9850EA4A000ED044F61050A5F2C9
:10040000FF3545432F14B8F1000F1ED07542291E49
:100410001EDDC9F100021CE0B8F1010F4FF0000031
:1004200001D0302103E0F24305E02154401CB042EA
:10043000FBDB30460022002121540B99C1F80880D3
:10044000C1E900200FB0BDE8F08FBD1B6D1CDEE7D9
:100450004A4600DA694206A800F066FA06AB93E85D
:10046000070003AB83E8070050460A9900F040FB01
:100470008DE80700A0F500501F3800900398002D6C
:1004800009DD42F21F014A46084403A90390684669
:1004900000F09FFD08E0A0F500504A461F3803A970
:1004A0000390684600F0A9FD8DE807000004000CE9
:1004B00003D04FF0FF30410800E01046B8F1000FC4
:1004C00003D00022009215461EE0751E05D400F0F0
:1004D0008DF9303262556D1EF9D5B34601220843BD
:1004E00002D000227F1C04E02078302801D10022B5
:1004F0007F1E002A099786D01DE0112D07DA00F033
:1005000075F9303262556D1C50EA0102F5D108438D
:1005100002D00098C8B10EE00021681E05E0235CFF
:10052000625C63542254401E491C8142F7DBAB4697
:10053000A81B401E0990002004F80B000B98099A94
:10054000C0F80880C0E9002B7CE711264FF00008B6
:1005500059E72DE9F04F88460446D21D22F00701E5
:1005600091B0D1E90001CDE90A0102F0F1F80246AB
:100570000B98C00F01D02D2007E02068810701D51E
:100580002B2002E0202101EAC000032A099001D0BB
:10059000072A05DB03464146204600F085F90BE1BA
:1005A0002078800601D5E06900E00620B8F1650FEB
:1005B000814606D0B8F1660F18D0B8F1670F70D138
:1005C00031E00020B9F1110F009001DB112301E0AF
:1005D00009F101030AAA01A90CA8FFF7E4FEDDE96D
:1005E0000C70002609F10105834647E001204B46C7
:1005F00000904FF000470AAA01A90CA8FFF7D3FE0C
:10060000DDE90DB00C995D46002610B909F1010035
:100610000D18B9EB050003D4C0F1FF3609F101054F
:10062000A5EB09002BE0B9F1010F01DA4FF0010948
:100630000020B9F1110F0090484601DD112300E0C0
:1006400003460AAA01A90CA8FFF7ADFEDDE90C706C
:100650004D4600268346207800070AD4AB4500DAD1
:100660005D4601A8012D04DD411911F8011C302956
:1006700007D04F4502DA17F1040F04DA0120824651
:100680000FE06D1EEEE7002F02DCED1B3E4403E0A1
:10069000781CA84200DD7D1CB81B00F1010A4FF058
:1006A00000472078000703D4AA4501DB4FF0FF3A4A
:1006B0000021B7F1004F0DF143088DF8431024D00D
:1006C00002202B23002F01DA7F422D230A21021E54
:1006D000A0F1010000DC5FB197FBF1FC97FBF1F2A8
:1006E00001FB1C7C17460CF1300C08F801CDEEE73D
:1006F000A8F1010003702188090501D5452100E01A
:100700006521A0F1010800F8011C09980FA9A1EBCF
:100710000807FF1D00B10120411901EBEA70A16932
:100720003844081A401EA0612078C00602D4204632
:10073000AFF30080099828B1D4E901219047206ADD
:10074000401C20622078C00622D52046AFF30080EE
:100750001EE0002E04DBB34502DD01A8805D00E051
:100760003020D4E901219047206A401C2062761C89
:10077000AAF101005FEA000A0AD100F033F8C0686C
:100780000168405CD4E901219047206A401C206246
:10079000281EA5F10105DCDC07E0D4E9012118F8E9
:1007A000010B9047206A401C2062381EA7F1010708
:1007B000F3DC2046AFF30080032011B043E60000D5
:1007C000074B70B50D467B4400F05BF804462846A5
:1007D00000F018F910B14FF0FF3070BD204670BD29
:1007E00063200000004870474401002030B5B0F19C
:1007F0000A024FEA900E71F100034EEA817EB0EBDF
:100800000E0061EB91014FEA101E4EEA017E10EBE3
:100810000E0041EB11114FEA102E4EEA016E10EB63
:100820000E0041EB11214FEA104E4EEA014E10EB43
:100830000E0041EB1141401841F100014FEAD00098
:1008400040EA41704FEAD10110EB80054FEA810484
:1008500044EA907444EB01046D1944EB0404521B08
:10086000A3414FF0000348BF0A3200D530BD401C01
:1008700041F1000130BD000001694A1C02610878A5
:10088000704700B58FB0CDE90131002105910549D0
:100890007944CDE9031011466846FFF7D1FC0FB04B
:1008A00000BD0000E5FFFFFF2DE9F0411F460446B3
:1008B00003260168072A01F4006004DB08B116A5CD
:1008C00005E016A503E008B115A500E015A521F087
:1008D00010002060A069C01EA0610FB1401EA06181
:1008E0002046AFF300804FB1D4E90121384690474C
:1008F000206A401C2062C01C206206E0206AFAE7E1
:10090000D4E9012115F8010B9047761EF8D2204654
:10091000AFF30080BDE8F0814E414E006E616E0085
:10092000494E4600696E66002DE9F047814616463D
:100930008AB0334878440DC88DE80D0030487844BB
:10094000801C03AC0DC884E80D0041F69B300844C0
:10095000372190FBF1F290FBF1F5A5F1800501FB49
:1009600012041B3C02D56442012000E00020DFF8A5
:1009700090A080460027FA44AAF1BE0A0DE0E007E5
:1009800009D03246684607EB47010AEB810100F0C7
:1009900034FB8DE8070064107F1C002CEFD1184F4A
:1009A0007F44AC3F18E0E80714D007EB04100DF1CA
:1009B000180A90E80E008AE80E00C068F04201D1E3
:1009C00098190890324606A903A800F016FB03AB5D
:1009D00083E807006D10641C002DE4D1324669469F
:1009E000B8F1000F03A802D000F0F3FA01E000F024
:1009F00004FBC9E90001C9F808200AB0BDE8F08786
:100A000094250000007B00F080007047004870478C
:100A1000240100207546FFF7F9FFAE460500694640
:100A2000534620F00700854618B020B5FFF7E8FBD5
:100A3000BDE820404FF000064FF000074FF00008DF
:100A40004FF0000B21F00701AC46ACE8C009ACE860
:100A5000C009ACE8C009ACE8C0098D46704710B5C4
:100A60000446AFF300802046BDE81040FFF7B4BB5A
:100A70004FF0013C50F8042B51F8043B9A4221D12D
:100A8000A2EB0C03934313EACC1317D150F8042BB9
:100A900051F8043B9A4215D1A2EB0C03934313EA9D
:100AA000CC130BD150F8042B51F8043B9A4209D1D6
:100AB000A2EB0C03934313EACC13DBD04FF00000FE
:100AC000704700BFD01A01BAB1FA81F101F01801E4
:100AD00022FA01F0CB40C1F12001DBB2C0B2C01A52
:100AE0002CFA01F3D11A914311EAC311E6D17047F0
:100AF0005FEA400C08BF91F0000F4FEA8C234FEAE9
:100B0000C12243EA51514FEA1C5018BF00F5F04092
:100B10004FEA300018BF41F000415FEA6C5C00F022
:100B20002980BCF1FF3F08BF40F080407047130CA4
:100B300006BF12044FF0100C4FF0000C130E04BF50
:100B400012020CF1080C130F04BF12010CF1040C7B
:100B5000930F04BF92000CF1020CD30F04BF52009C
:100B60000CF1010C11464FF00002A0F11F00A0EBA8
:100B70000C00704711F0004F08BF704731F0004182
:100B80003FF4D5AF0B0C06BF09044FF0100C4FF02B
:100B9000000C0B0E04BF09020CF1080C0B0F04BF74
:100BA00009010CF1040C8B0F04BF89000CF1020C3D
:100BB000CB0F04BF49000CF1010CCCF12003A0EBDA
:100BC0000C0022FA03F302FA0CF241EA030100F1ED
:100BD0000100704720F07F4C80EA030023F07F473C
:100BE000ACEB070303F57C5300F0004003F1FF0377
:100BF0002DE980494FEA154B09B44FEA144325EA21
:100C00000B4E24EA03480FF2042606EB132749088B
:100C10003E785FEA320203FB0667C7F5000707FB71
:100C200006F64FEA54374FEAD64606F1020607FBAE
:100C3000066CCCF1005C4FEA1C472CEA074C07FB22
:100C400006F40CFB06F504EB15464FEA961634BF86
:100C500000204FF000404FEAD13706FB07FC4FEA77
:100C60001C4C0CFB0BF7D21B03FB0CF761EB0701D1
:100C70000CFB0EF7B0EB074072EB17420CFB08F7CA
:100C800034BFA2EB0742B2EB074261EB17414FEAD8
:100C90000C444FEA910706FB07FC4FEA1C4C0CFB87
:100CA0000BF7B0EBC74072EB573203FB0CF734BFC6
:100CB000A2EBC742B2EBC74261EB57310CFB0EF718
:100CC000B0EBC70072EB57720CFB08F734BFA2EB16
:100CD000C702B2EBC70261EB5771039F4FEA816114
:100CE00041EA921104EBCC044FEAD1374FEA826219
:100CF00006FB07FC42EA90124FEA80604FEA1C4C68
:100D00000CFB0BF7D21B03FB0CF761EB07010CFB91
:100D10000EF7B0EB074072EB17420CFB08F734BF3D
:100D2000A2EB0742B2EB074261EB17414FEA8C5549
:100D30004FEA910704EB9C2406FB07FC4FEA1C4C8E
:100D40000CFB0BF7B0EBC74072EB573203FB0CF711
:100D500034BFA2EBC742B2EBC74261EB57310CFB89
:100D60000EF7B0EBC70072EB57720CFB08F734BFFD
:100D7000A2EBC702B2EBC70261EB577115EB4C2532
:100D80004FEA816141EA92114FEA82624FEAD1371C
:100D900042EA901206FB07FC44F100044FEA80602F
:100DA0004FEA1C4C0CFB0BF7D21B03FB0CF761EB5F
:100DB00007010CFB0EF7B0EB074072EB17420CFB80
:100DC00008F734BFA2EB0742B2EB074261EB1741D1
:100DD00015EB1C154FEA813141EA92414FEA82320C
:100DE00042EA90424FEA80304FEA0C7644F1000428
:100DF00048EA03434EEA0B484FF0000EB2EB080CF2
:100E000071EB030724BF624639464EEB0E0E4FF0DE
:100E1000000B0018524149414BEB0B0BB2EB080C95
:100E200071EB03077BF1000B24BF624639464EEBA2
:100E30000E0E4FF0000B0018524149414BEB0B0BCB
:100E4000B2EB080C71EB03077BF1000B24BF624689
:100E500039464EEB0E0E51EA020718BF46F0010666
:100E600016EB0E7655F1000254F1000103D5BDE8F2
:100E70008901BDE80088BDE88901BDE80048B619D0
:100E8000524141EB0101A3F10103704780807F7E55
:100E90007D7C7B7A797877767675747372717170F0
:100EA0006F6E6E6D6C6C6B6A6A69686867666665A2
:100EB0006464636362616160605F5F5E5E5D5D5C30
:100EC0005C5B5B5A5A5959585857575656555555A1
:100ED0005454535352525251515050504F4F4F4E01
:100EE0004E4D4D4D4C4C4C4B4B4B4A4A4A4949494F
:100EF0004848484747474746464645454544444491
:100F0000444343434342424242414141002B26D4A1
:100F1000770021D01CB54FEA370703B44FF010001B
:100F20004FF010014FF000000FBCBDE810400BF176
:100F3000010BBBF1010F08BF5FEA170722BF12F1D7
:100F4000010211F101014FF0004143F1000300F0F3
:100F5000004043EA00007047F9D35708DAE746EA51
:100F6000064613F1400F4FEA16461FDD13F1200F1E
:100F7000DFBF16430A46002120335B42C8D0C3F1CD
:100F8000200746EA064602FA07F74FEA164646EAFF
:100F90000706C3F1200722FA03F201FA07F721FA44
:100FA00003F14FF0000342EA0702B1E746EA020606
:100FB00046EA06464FEA164646EA0106BCBF46EA3E
:100FC0000646360C4FF000034FF000024FF00001D0
:100FD0009EE72DE9C048934630B491E8380007C831
:100FE00031EA400C48BF34EA430C03D5FFF7F2FD69
:100FF000FFF78CFFF0BCBDE800882DE9C0489346A0
:1010000030B491E8380007C810F0804F08BF13F0E3
:10101000804F03D100F005F8FFF778FFF0BCBDE882
:10102000008820F07F4780EA030023F07F4C07EB25
:101030000C03A3F57C5300F00040A3F1FE0392F0F3
:10104000000F00F0B38095F0000F00F077802DE9DD
:1010500001494FEA11404FEA144621EA004800FBDB
:1010600006FC24EA064708FB06F607FB08F800FB27
:1010700007F718EB06484CEB164C4FEA124B18EBEF
:1010800007484FEA15464CEB174022EA0B4E0BFB84
:1010900006FC25EA06470EFB06F607FB0EFE0BFBD9
:1010A00007F71EEB064E4CEB164C4FF000061EEBFE
:1010B000074E4CEB174B18EB0B0840F1000018EBF8
:1010C0000E0B58EB000840F100008F1A4FF00001A2
:1010D0003CBFC943661B14BFB5EB040C00213CBFE9
:1010E000C943F61B4FEA17444EEA8E0E27EA044521
:1010F0004FEA1C4704FB07622CEA074C05FB07F785
:101100000CFB05F604FB0CFC16EB074642EB174202
:1011100016EB0C4642EB1C421BEB060658EB020298
:10112000414146EA9E0601D5BDE80189B619524102
:1011300041EB0101A3F10103BDE801894FEA144528
:101140004FEA114724EA054621EA074C05FB07F45C
:1011500006FB07F70CFB06F105FB0CFC11EB074146
:1011600044EB17444FEA124711EB0C4144EB1C448B
:1011700022EA074C05FB07F206FB07F70CFB06F615
:1011800005FB0CFC16EB074642EB174216EB0C4630
:1011900042EB1C456A1854F1000148BF7047B6196C
:1011A000524141EB0101A3F10103704795F0000F9B
:1011B00037D04FEA11424FEA144721EA024624EAA7
:1011C000074C02FB07F106FB07F70CFB06F402FBDA
:1011D0000CFC14EB074441EB17414FEA154714EBA5
:1011E0000C4441EB1C4125EA074C02FB07F506FBCA
:1011F00007F70CFB06F602FB0CFC16EB074645EB6B
:10120000174516EB0C4645EB1C42121951F1000133
:1012100048BF7047B619524141EB0101A3F10103E8
:1012200070474FEA14454FEA114724EA054621EA80
:10123000074C05FB07F106FB07F70CFB06F24FF026
:10124000000605FB0CFC12EB074241EB174112EBC9
:101250000C4251EB1C4148BF7047921841EB010111
:10126000A3F10103704700002B48806940F400702F
:10127000294988610846806940F004008861084671
:10128000406840F4004048600846406820F48040D0
:1012900048602248006820F0F0002049086020489B
:1012A000006820F480701E490860081D006840F046
:1012B0000200091D08600846006820F4006008600C
:1012C00017480C30006820F0380015490C310860D0
:1012D00013482830006820F4700011492831086054
:1012E0000F483030006820F01F000D493031086091
:1012F0000846006840F0010008600948001D0068C9
:1013000040F480100649091D08600846006840F452
:101310006020086070470000001002400008014093
:10132000042401402DE9F0410849086801F070FCEF
:1013300006464FF06632064B01F07EFC0446002262
:10134000044B01F00DFBBDE8F08100004C2401408E
:1013500066660A4000FEAF401048006840F0010099
:101360000E4908600846006840F00400086000BFAD
:101370000A48006800F004000128F9D00748006816
:1013800040F480000549086000BF04480838006840
:1013900000F002000028F8D0704700000824014047
:1013A00000BFFEE70848006800F0020050B10648A0
:1013B000406840F00200044948600846806820F018
:1013C0000100886070470000000002407047000084
:1013D00070B50446002594F82100022803D00420AB
:1013E000A0630125C1E02068006820F00E0021689C
:1013F00008602068006820F00100216808605C49EE
:101400002068884252D95A4978392068884201D1E7
:10141000012047E0564964392068884201D11020F4
:1014200040E0534950392068884201D1801539E0A5
:101430004F493C392068884201D1801432E04C4940
:1014400028392068884202D14FF480302AE0484988
:1014500014392068884202D14FF4801022E04449B8
:101460002068884201D140041CE04249206888423B
:1014700001D1012016E03F4914312068884201D192
:1014800010200FE03B4928312068884201D18015A7
:1014900008E038493C312068884201D1801401E0DD
:1014A0004FF480303349091F086051E030497839E2
:1014B0002068884201D1012047E02D496439206825
:1014C000884201D1102040E02949503920688842E3
:1014D00001D1801539E026493C392068884201D184
:1014E000801432E0224928392068884202D14FF422
:1014F00080302AE01E4914392068884202D14FF416
:10150000801022E01A492068884201D140041CE082
:1015100018492068884201D1012016E0154914318C
:101520002068884201D110200FE01249283120683C
:10153000884201D1801508E00E493C31206888427C
:1015400001D1801401E04FF48030094980394860AE
:10155000012084F8210000BF002084F8200000BF93
:10156000606B10B12046616B8847284670BD000053
:1015700080000240080402402DE9F847024600239B
:101580009C467BE14FF0010808FA03F4D1F8008093
:1015900008EA0400A0427DD1DFF8F4A2D1F804806B
:1015A000A8EB0A09D0453AD014DCB8F1030F50D0AB
:1015B00009DCB8F1000F31D0B8F1010F1CD0B8F13F
:1015C000020F49D120E0B8F1110F18D0B8F1120F75
:1015D00042D11EE0B9F5881F25D006DCB9F5803F61
:1015E00020D0B9F5801F37D11AE0B9F5001F18D007
:1015F000B9F5041F30D117E0D1F80CC02DE0D1F8B7
:101600000C8008F1040C28E0D1F80C8008F1080CDB
:1016100023E0D1F80C8008F10C0C1EE000BF00BFE5
:1016200000BF00BF00BF00BFD1F80880B8F1000FB5
:1016300002D14FF0040C0BE0D1F80880B8F1010F93
:1016400003D14FF0080C146102E04FF0080C546114
:1016500003E04FF0000C00E000BF00BFFF2801D8FE
:10166000904601E002F104084646FF2802D84FEAFE
:10167000830803E0A3F108084FEA88084746D6F834
:1016800000804FF00F0909FA07F928EA09080CFA57
:1016900007F900E07AE048EA0908C6F80080D1F8C6
:1016A000048008F08058B8F1805F6FD100BFDFF888
:1016B000E481D8F8188048F00108DFF8D891C9F81B
:1016C0001880C846D8F8188008F00108CDF80080C6
:1016D00000BF00BF4FEAB9384FEA930958F82950C4
:1016E0004FEA83784FEA18794FF00F0808FA09F8A3
:1016F00025EA0805DFF8A081424502D14FF0000835
:1017000024E0DFF89881424502D14FF001081DE046
:10171000DFF88C81424502D14FF0020816E0DFF875
:101720008481424502D14FF003080FE0DFF8788151
:10173000424502D14FF0040808E0DFF870814245CD
:1017400002D14FF0050801E04FF006084FEA837917
:101750004FEA197908FA09F848EA0505DFF85081D7
:101760004FEA930948F82950D1F8048008F48038EA
:10177000B8F5803F0BD1DFF83C81D8F8008048EA0B
:101780000008DFF83091C9F800800AE075E0DFF862
:101790002481D8F8008028EA0008DFF81891C9F8F9
:1017A0000080D1F8048008F40038B8F5003F0ED16D
:1017B000DFF8008108F10408D8F8008048EA000842
:1017C000DFF8F09009F10409C9F800800DE0DFF8B6
:1017D000E48008F10408D8F8008028EA0008DFF85F
:1017E000D49009F10409C9F80080D1F8048008F404
:1017F0008018B8F5801F0ED1DFF8B88008F108080E
:10180000D8F8008048EA0008DFF8A89009F1080934
:10181000C9F800800DE0DFF89C8008F10808D8F8CE
:10182000008028EA0008DFF88C9009F10809C9F85F
:101830000080D1F8048008F40018B8F5001F0ED11C
:10184000DFF8708008F10C08D8F8008048EA00083A
:10185000DFF8609009F10C09C9F800800DE0DFF8AD
:10186000548008F10C08D8F8008028EA0008DFF856
:10187000449009F10C09C9F800805B1CD1F8008084
:1018800028FA03F8B8F1000F7FF47CAEBDE8F887C2
:10189000000011100010024000080140000C01403F
:1018A000001001400014014000180140001C0140DC
:1018B0000800014000040140014800687047000032
:1018C00010000020034800680349097808440149D2
:1018D00008607047100000201800002010B508486C
:1018E000006840F0100006490860052000F080F80C
:1018F0000F2000F007F800F02BF8002010BD0000CA
:101900000020024070B504460E4800784FF47A710A
:10191000B1FBF0F00C490968B1FBF0F5284600F086
:10192000E3FB08B1012070BD102C07D20022214634
:10193000501E00F01EF80548046001E00120F2E7A7
:101940000020F0E718000020000000201400002014
:10195000704701460846002809DB00F01F030122FA
:101960009A4043099B0003F1E023C3F8002100BF24
:1019700070472DE9F05F80460D461646002700F0BF
:10198000FBFE074639462A46334601F00700C0F100
:10199000070ABAF1040F02D94FF0040A01E0C0F1BE
:1019A000070AD14600F1040ABAF1070F02D24FF03C
:1019B000000A01E0A0F1030AD4464FF0010A0AFA36
:1019C00009FAAAF1010A0AEA020A0AFA0CFA4FF025
:1019D000010B0BFA0CFBABF1010B0BEA030B4AEA10
:1019E0000B042146404600F0CFFEBDE8F09F00000A
:1019F00000BF00F00702064B19684FF6FF031940BD
:101A0000044B0B4343EA0221014B196000BF7047AE
:101A10000CED00E00000FA0570B504460D460CB967
:101A2000012070BD5A48006800F00700A8420ED29D
:101A30005748006820F007002843554908600846C9
:101A4000006800F00700A84201D00120E9E72078F3
:101A500000F0020002281DD1207800F004000428C4
:101A600005D14C48406840F4E0604A49486020781D
:101A700000F00800082805D14648406840F460504E
:101A8000444948604348406820F0F000A16808439A
:101A900040494860207800F0010078B36068012870
:101AA00006D13C48006800F4003090B90120B8E746
:101AB0006068022806D13748006800F0007040B91D
:101AC0000120AEE73348006800F0020008B90120A9
:101AD000A7E73048406820F00300616808432D49BB
:101AE0004860FFF7E9FE064609E0FFF7E5FE801BC8
:101AF00041F28831884202D9032092E707E0254865
:101B0000406800F00C006168B0EB810FEDD1204817
:101B1000006800F00700A8420ED91D48006820F0B8
:101B2000070028431A4908600846006800F00700CB
:101B3000A84201D0012074E7207800F004000428B6
:101B400007D11448406820F4E060E1680843114977
:101B50004860207800F00800082808D10D48406847
:101B600020F46050216940EAC1000A49486000F051
:101B70003FF808494968C1F30311074A515CC8405E
:101B80000649086006480068FFF7BCFE002048E7E9
:101B90000020024000100240382E00080000002003
:101BA0001400002001480068704700000000002079
:101BB00000B5FFF7F7FF04494968C1F30221034A62
:101BC000515CC84000BD000000100240482E0008D3
:101BD00000B5FFF7E7FF04494968C1F3C221034A92
:101BE000515CC84000BD000000100240482E0008B3
:101BF000F0B585B00FF26C0C9CE8E01001A8A0E8ED
:101C0000E0101CA52D68009500210022002300246F
:101C10000020194D696801F00C05F5B1042D02D0C2
:101C2000082D19D101E0154819E001ADC1F3834633
:101C3000AC5D01F4803555B10F4D6D68C5F340457D
:101C40001DF805200D4D6543B5FBF2F302E00C4D88
:101C500004FB05F3184602E000BF084800BF00BFC0
:101C600005B0F0BD02030405060708090A0B0C0DB8
:101C70000E0F1010010200000010024000127A0046
:101C800000093D00F8B504460CB90120F8BD2078E4
:101C900000F00100002878D0F848406800F00C00FF
:101CA00004280CD0F548406800F00C00082811D139
:101CB000F248406800F48030B0F5803F0AD1EF4828
:101CC000006800F4003000285FD0606800285CD114
:101CD0000120DBE700BF6068B0F5803F06D1E74830
:101CE000006840F48030E549086028E0606858B931
:101CF000E248006820F48030E04908600846006847
:101D000020F4802008601AE06068B0F5A02F0BD1A5
:101D1000DA48006840F48020D84908600846006826
:101D200040F4803008600AE0D448006820F4803035
:101D3000D24908600846006820F48020086000BF8F
:101D4000606888B1FFF7B8FD054606E0FFF7B4FD0F
:101D5000401B642801D9032098E7C848006800F4B4
:101D600000300028F2D010E0FFF7A6FD054606E09F
:101D7000FFF7A2FD401B642801D9032086E7BF4876
:101D8000006800F400300028F2D1207800F0020052
:101D9000022857D1B948406800F00C0050B1B7484C
:101DA000406800F00C00082818D1B448406800F4DE
:101DB000803098B9B148006800F0020020B1206975
:101DC000012801D0012061E7AC48006820F0F8004C
:101DD000616940EAC100A949086033E02069E8B1BF
:101DE0000120A7490860FFF767FD054606E0FFF7F9
:101DF00063FD401B022801D9032047E79F48006884
:101E000000F002000028F2D09C48006820F0F800A2
:101E1000616940EAC1009949086013E000209849CF
:101E20000860FFF749FD054606E0FFF745FD401B4A
:101E3000022801D9032029E79048006800F0020039
:101E40000028F2D1207800F0080008282DD1A069E0
:101E5000B8B101208B490860FFF72EFD054606E06A
:101E6000FFF72AFD401B022801D903200EE7834813
:101E7000406A00F002000028F2D0012000F01CFBB4
:101E800013E000207F490860FFF716FD054606E0D5
:101E9000FFF712FD401B022801D90320F6E6774820
:101EA000406A00F002000028F2D1207800F004001F
:101EB000042873D100277148C06900F0805070B9C0
:101EC00000BF6E48C06940F080506C49C861084648
:101ED000C06900F08050009000BF00BF01276A4831
:101EE000006800F48070B0B96748006840F4807002
:101EF00065490860FFF7E0FC054606E0FFF7DCFCFB
:101F0000401B642801D90320C0E65F48006800F444
:101F100080700028F2D000BFE068012806D1574841
:101F2000006A40F001005549086227E0E06858B9AE
:101F30005248006A20F00100504908620846006AD1
:101F400020F00400086219E0E06805280BD14B4836
:101F5000006A40F00400494908620846006A40F0FF
:101F6000010008620AE04548006A20F00100434988
:101F700008620846006A20F00400086200BFE068BA
:101F8000A0B1FFF799FC054609E0FFF795FC401B5F
:101F900041F28831884202D9032077E622E03748AF
:101FA000006A00F002000028EFD012E0FFF784FC86
:101FB000054608E0FFF780FC401B41F2883188426B
:101FC00001D9032062E62D48006A00F002000028D3
:101FD000F0D1012F05D12948C06920F08050274950
:101FE000C86100BFE069C8B32448406800F00C0035
:101FF000082860D0E069022848D1002020490866FE
:10200000FFF75AFC054606E0FFF756FC401B022886
:1020100001D903203AE61948006800F00070002852
:10202000F2D1206AB0F5803F07D11448406820F40F
:102030000030A168084311494860D4E90801084309
:102040000E49496821F4741108430C494860012085
:102050000B490866FFF730FC054607E03DE0FFF757
:102060002BFC401B022801D903200FE6034800681F
:1020700000F000700028F2D02FE0000000100240B5
:102080000000424280044242007000400020144997
:102090000866FFF711FC054606E0FFF70DFC401B44
:1020A000022801D90320F1E50E48006800F0007015
:1020B0000028F2D111E0E069012800D1E6E50948E5
:1020C000466806F48031206A814204D106F470111A
:1020D000606A814201D00120D8E50020D6E50000E9
:1020E000000042420010024070B504462546681EBA
:1020F000B0F1807F01D301200FE0681E4FF0E02196
:1021000048610F214FF0FF3000F03EFB00204FF000
:10211000E021886107200861002070BD7047000041
:102120002DE9F0470446206805682068C6682068E5
:1021300047694FF00008C14605F00F08B8F1000FDD
:102140000AD105F0200038B106F0200020B1204669
:1021500000F0F6F9BDE8F087B8F1000F71D007F094
:10216000010018B906F4907000286AD005F001004B
:1021700030B106F4807018B1E06B40F00100E0630C
:1021800005F0040030B107F0010018B1E06B40F039
:102190000200E06305F0020030B107F0010018B161
:1021A000E06B40F00400E06305F0080048B106F081
:1021B000200010B907F0010018B1E06B40F00800F2
:1021C000E063E06B68B305F0200028B106F0200062
:1021D00010B1204600F0B4F920684069C0F38019BE
:1021E000E06B00F0080010B9B9F1000F22D02046D2
:1021F00000F086F92068406900F04000B0B1206826
:10220000406920F0400021684861606B50B1184877
:10221000616B4863606BFFF7DBF810B1606B416B7B
:1022200088470CE02046FFF779FF08E02046FFF7DB
:1022300075FF04E02046FFF771FF0020E06389E7A7
:10224000FFE705F0800030B106F0800018B12046AD
:1022500000F044FA7EE705F0400030B106F040009F
:1022600018B1204600F05CF974E700BF72E7000087
:10227000ED24000810B504460CB9012010BDA0697A
:1022800000B100E000BF94F8390028B9002084F8BC
:102290003800204600F028F8242084F8390020680F
:1022A000C06820F400502168C860204600F098F90A
:1022B0002068006920F49040216808612068406926
:1022C00020F02A00216848612068C06840F400506E
:1022D0002168C8600020E063202084F8390084F879
:1022E0003A000020CAE7000010B586B0044628492D
:1022F000206888424AD100BF00BF2648806940F06C
:102300000400244988610846806900F004000190B7
:1023100000BF00BF00BF00BF00BF0846806940F09B
:10232000040088610846806900F00400019000BF45
:1023300000BF00BF00BF00BF0846806940F4804076
:1023400088610846806900F48040019000BF00BFAA
:1023500000BF481502900220039001200490032042
:10236000059002A90C48FFF707F94FF4806002902E
:102370000020039002A90848FFF7FEF82520FFF788
:10238000E8FA032211462520FFF7F3FA06B010BD44
:1023900000380140001002400008014010B503461B
:1023A00093F83A0020282FD101B10AB9012010BDBD
:1023B00000BF93F83800012801D10220F7E701207F
:1023C00083F8380000BF99629A85DA850020D863C7
:1023D000222083F83A0000BF002083F8380000BFB5
:1023E0001868C06840F480701C68E0601868406934
:1023F00040F001001C6860611868C06840F020006F
:102400001C68E0600020D2E70220D0E710B5044647
:102410002049206888423BD11F48008800F40040D2
:1024200088BB1D48008800F4804070B11B480078CC
:102430000A2803D000201849088024E016480088A4
:1024400040F40040144908801DE0144800780D282D
:1024500006D11148008840F480400F49088012E0FE
:102460000E4800780C490988C1F30D010C4A5054FC
:1024700009480088401C0849088008460088C72889
:1024800001DD00200880012204490648FFF786FF8D
:1024900010BD0000003801400C0000200E0000209C
:1024A0001C000020E4000020704700BFFEE700BFD2
:1024B000FEE770477047000008B508490968C90879
:1024C0004FF47A72B1FBF2F14143009100BF00BFBB
:1024D00000994A1E00920029F9D108BD0000002091
:1024E000704710B5FFF7EEF910BD704770B505469F
:1024F0006C6A0020E085E0842046FFF70FFE70BD87
:102500000168C96821F490710268D1600168496965
:1025100021F0010102685161202180F83A107047D2
:1025200010B504462068C06820F040002168C860EB
:10253000202084F839002046FFF7B6FF002010BDA8
:1025400070B5044694F83A00222847D1A068B0F547
:10255000805F0CD1206950B90025A66A20684068C8
:10256000C0F308003080A06A801CA06215E0A56A54
:102570000026A068B0F5805F03D0A06828B9206964
:1025800018B920684068287004E02068406800F0AE
:102590007F002870A06A401CA062E08D401E80B2BF
:1025A000E085C8B92068C06820F020002168C860B4
:1025B0002068C06820F480702168C8602068406985
:1025C00020F0010021684861202084F83A0020466C
:1025D000FFF71CFF002070BD0020FCE70220FAE797
:1025E00070B504462168096921F44051E26811433D
:1025F000226811612269A1681143626941EA0205FA
:102600002168C96841F20C62914329432268D16074
:102610002168496921F44071A2691143226851611E
:102620002D4A2168914202D1FFF7D2FA01E0FFF76B
:10263000BFFA00EBC00101EB001162689200B1FB30
:10264000F2F100EBC00202EB001263689B00B2FBE8
:10265000F3F26423B2FBF3F202EBC20303EB0212C8
:10266000A1EB8201322202EB01116422B1FBF2F1F3
:1026700001F0F00100EBC00202EB001263689B0066
:10268000B2FBF3F26423B2FBF3F201EB021200EBB4
:10269000C00101EB001163689B00B1FBF3F100EB9B
:1026A000C00303EB00136668B600B3FBF6F36426C1
:1026B000B3FBF6F303EBC30606EB0313A1EB8301B5
:1026C000322303EB01116423B1FBF3F101F00F019D
:1026D00011442268916070BD00380140014691F8B4
:1026E0003900212828D18868B0F5805F0BD10869AE
:1026F00048B90A6A1088C0F308000B685860086A75
:10270000801C086205E00B6A581C086218780B6888
:102710005860C88C401E80B2C88458B90868C06828
:1027200020F080000B68D8600868C06840F0400066
:102730000B68D860002070470220FCE710B5024803
:10274000FFF7EEFC10BD0000E400002000BFFEE734
:10275000490050EAC12018BF04204A0D18BF40F0BC
:10276000010040F2FF72B2EB515F08BF40F002007F
:10277000012808BF0520704702480068C0F3022006
:10278000704700000CED00E010B5002804DB0A07DC
:10279000130E054A135406E00A07140E034A00F00C
:1027A0000F031B1FD45410BD00E400E018ED00E03F
:1027B00030380A2801D2012070470020704700BF3E
:1027C00070470000014908607047000004000020C5
:1027D00010B504464FF47A7104FB01F000F002F8E2
:1027E00010BD000070B5034600224FF0E026756969
:1027F0000D4E366803FB06F44FF0E026B16910E099
:102800004FF0E026B06988420BD0884202D20E1AFF
:10281000324402E02E1A0E4432440146A24200D352
:1028200000E0EDE700BF70BD0400002000BF054AD6
:10283000126802F04002002AF9D0C2B2014B1B1DFF
:102840001A60704700380140FFF748F84FF4E01075
:1028500000F020F84820FFF7B5FF4FF4E13000F01A
:102860004DF8FEF701FDFEF777FD0BE04FF47A70AF
:10287000FFF7AEFFFEF756FD044622460B4602A0C8
:10288000FDF7D2FCF2E7000056203D20252E3266EF
:102890000A00000030B58FB005460124282105A8A4
:1028A000FDF755FD14216846FDF751FD0120059007
:1028B000000406900020079002200C90C1030D91A7
:1028C0000E9505A8FFF7DEF904460CB100BFFEE740
:1028D0000F20009002200190002002904FF48060B1
:1028E00003900020049002216846FFF795F8044603
:1028F0000CB100BFFEE70FB030BD000010B50446BC
:1029000009480A4908600846446000218160C160A6
:10291000016181610C214161FFF7ACFC0122044996
:102920000248FFF73BFD10BD00380140E4000020E5
:102930000E00002010B500290AD00878002807D022
:1029400005487844FEF794F8002801D0002010BD17
:102950000248784410BD0000C2050000BA0500001E
:102960002DE9C04130B4DFF8A0C23CEA111418BF11
:102970003CEA131400F0EC8081EA03051CEA111410
:1029800044EAD57418BF1CEA131500F0C780A4EB05
:1029900005044FF0004545EAC12145EAC32341EA59
:1029A000505143EA525304F17F74994204F50034C4
:1029B0004FEAC0204FEAC22208BF904200F09C803C
:1029C0004FEA13650FF24016765D4FEA134506FB9A
:1029D00005F7C7F1807706FB07F74FEAD737A7FB64
:1029E00003687642C8F58038A7FB06CE38BFA8F149
:1029F000010807FB08E64FF0000EA6FB028CE6FB81
:102A000003CEDCF1000CCEF1004E38BFAEF1010E6A
:102A1000A6FB0C584FF000074FF00005E6FB0E87B1
:102A2000A1FB08C6A0FB07CE16EB0E0645F100057C
:102A3000E1FB076515F1E04E7EBFA4F580345FEA47
:102A400046066D4116F1800745F100054FEA17274C
:102A50004FEA066647EA0567A6F1DE46B6F1805FF3
:102A60004FEA15251FD9384624F0010C05EBC47137
:102A7000BCF1FE6F01EB0C1102D8F0BCBDE8008187
:102A800024425CBF01F5801E9EEAC47F02D4F0BCE4
:102A9000BDE80081244238D4F0BCA1F1C041BDE8BA
:102AA000004100F0C1B94FEAD22242EA43524FEA54
:102AB000D323A7FB02864FEAD02040EA415007FB10
:102AC00003661EEA0E0F4FEAD12105FB026658BFCE
:102AD000A6EB0056B6EB00564FEA520E4EEAC37E06
:102AE00018EB0E0E56EB530EBDD518EB02085E41E7
:102AF0007F1C55F10005B6E74FF480154FF0000735
:102B00004FF000064FF00008ADE7F0BC4FF00000BA
:102B100001F1C04101F00041BDE8008111EA0C1F44
:102B20000CEA131500D00CE013EA0C1F00F025800E
:102B30004FF00000F0BC81EA030101F00041BDE864
:102B40000081F0BCBDE8004181EA030100F06CB9EE
:102B5000F0BCBDE8004170B500F018F9097EFC3EFC
:102B600000F007B881EA03014FF0000001F00041D6
:102B7000704781EA030100F057B9F0BCBDE800419D
:102B80004FF0000021497047FFFDFBF9F7F5F4F223
:102B9000F0EEEDEBE9E8E6E4E3E1E0DEDDDBDAD8F8
:102BA000D7D5D4D3D1D0CFCDCCCBCAC8C7C6C5C456
:102BB000C2C1C0BFBEBDBCBBBAB9B8B7B6B5B4B36D
:102BC000B2B1B0AFAEADACABAAA9A8A8A7A6A5A458
:102BD000A3A3A2A1A09F9F9E9D9C9C9B9A9999981C
:102BE0009797969595949393929191908F8F8E8EBF
:102BF0008D8C8C8B8B8A898988888787868585844C
:102C000084838382828181800000FF070000F87F37
:102C1000B0FA80F310FA03F10AD0C3F11D0303F5F3
:102C200080634FEA41504FEA035202EBD1217047D3
:102C30004FF0000070470000DFF848C170B51CEA93
:102C4000111E1EBF1CEA13159EEA0C0F95EA0C0F0D
:102C500000F06F8081EA030423EA4C134EEAD47E2D
:102C600021EA4C1141F4801143F48013AE44A1FBDE
:102C7000024CA0FB0365AEF17F7E361955EB0C05C7
:102C8000A1FB034C4CF10003A0FB021C16EB0C064D
:102C9000654153F10003094218BF46F0010613F4E1
:102CA000007F0BD14FEA03314FEA0530340341EA8C
:102CB000155140EA16506FF003020AE04FEAC321B3
:102CC0004FEAC520F40241EA555140EA56506FF0F0
:102CD000020202EB2E4201EB025585EACE710AD0C8
:102CE0005FEA440C18BF24F0004450F1000041F1A9
:102CF000000120EAD47040F2FE7C624500D270BD33
:102D0000A84214BF4FF080444FF04044002E08BF4B
:102D10000024BEF1806FA8BFA1F1C041BDE87040A2
:102D200080F282804FF0000001F1C04101F00041CB
:102D300070479EEA0C0F0CEA131518BF95EA0C0FAA
:102D400006D04FF0000081EA030E0EF0004170BD86
:102D500000F01CF88900013E00F007B800F009B847
:102D60004FEA430C5FEA5C5C08D081EA030100F0A3
:102D70005BB84FEA410C5FEA5C5CF6D14FF00000B3
:102D8000014970470000FF070000F87F0EF1020EB6
:102D90002EF0030E5EF8046B364205D4012A43EB95
:102DA000030515F5001F12D8012841EB010C1CF595
:102DB000001F0CD80ED14FEAD17C15F5001F0CEB8B
:102DC0004C0C0CF1020C08BF4CEBD37C04E04FF030
:102DD000080C01E04FEAD37C0CEB4C0526FA05F613
:102DE00006F00706B6F1040C06D20EEB860CBDE821
:102DF00070404CF0010C6047DFE80CF0090B020258
:102E00004FF000414FF00000A1F5002170BD1946C0
:102E10001046012851EB010418BFD4F5001484BFFB
:102E2000002001F0004170BD0808A0F500114FEA34
:102E300031017047FDF78DBB00000000000000006D
:102E40000102030406070809000000000102030450
:102E500002400000000000A000000000054000004B
:102E6000000000C8000000000C4000000000409C72
:102E700000000000194000000020BCBE000000005F
:102E800034400000BFC91B8E00000004B5400000A4
:102E9000504BCFD06607E2CF010000006C4100002C
:102EA0003E8251AADFEEA73401000000D9420000A3
:102EB000DCB5A0E23A301F97FFFFFFFFB4450000EA
:102EC000FD25A0C8E9A3C14FFFFFFFFFFF3F0000A2
:102ED0000000008000000000FF3F000000000080B4
:102EE00000000000202F0008000000201C0000004F
:102EF0006C0100083C2F00081C0000206C0700003B
:102F0000880100081C00000043000000F8FFFFFFDC
:102F10000C0000000E0000000F0000002E0000005A
:102F20000024F40000000000000000000000000089
:0C2F300000000000100000000100000084
:0400000508000131BD
:00000001FF
