:020000040800F2
:10000000D80600206501000801140008990F0008B7
:1000100000000000000000000000000000000000E0
:1000200000000000000000000000000009160008A9
:100030000000000000000000031400080B16000878
:1000400077010008770100087701000877010008B0
:1000500077010008770100087701000877010008A0
:100060007701000877010008770100087701000890
:100070007701000877010008770100087701000880
:100080007701000877010008770100087701000870
:100090007701000877010008770100087701000860
:1000A0007701000877010008770100087701000850
:1000B0007701000877010008770100087701000840
:1000C00000F002F800F03EF80CA030C80838241800
:1000D0002D18A246671EAB4654465D46AC4201D180
:1000E00000F030F87E460F3E0FCCB6460126334274
:1000F00000D0FB1AA246AB46334318473C1600001B
:100100005C160000103A02D378C878C1FAD85207BA
:1001100001D330C830C101D504680C6070470000BD
:100120000023002400250026103A01D378C1FBD813
:10013000520700D330C100D50B6070471FB51FBDFB
:1001400010B510BD00F07BF91146FFF7F7FF01F085
:10015000C7FA00F093F903B4FFF7F2FF03BC00F015
:1001600099F900000748804707480047FEE7FEE787
:10017000FEE7FEE7FEE7FEE704480549054A064BB1
:100180007047000069160008C1000008D800002070
:10019000D8060020D8020020D8020020FEB505466F
:1001A00010460C46184373D0AE468C460020AD1A5C
:1001B00001469C4167D36646002701243D46B61A96
:1001C0009D4102D313463A462124654676462F04C4
:1001D000360C3E432D0CB61A9D4104D3150C1B045E
:1001E0002B4312041034654676462F06360A3E43EA
:1001F0002D0AB61A9D4104D3150E1B022B43120281
:100200000834654676462F0736093E432D09B61A4F
:100210009D4104D3150F1B012B431201241D65467C
:100220007646AF07B6083E43AD08B61A9D4104D3E3
:10023000950F9B002B439200A41C65467646EF0762
:1002400076083E436D08B61A9D411AD392185B4159
:10025000641C16E00018764665464941B71A9D4170
:100260000191009009D36046B11A98418E468446A8
:10027000009801990025401C6941DD0752082A4376
:100280005B08641EE6D57246634603B0F0BDFFE727
:1002900000200146C046C0462A462346F5E701E055
:1002A00004C0091F0429FBD28B0701D50280801CE2
:1002B000C90700D00270704700290BD0C30702D0D5
:1002C0000270401C491E022904D3830702D5028014
:1002D000801C891EE3E70022EEE70022DFE7002210
:1002E00003098B422CD3030A8B4211D300239C4673
:1002F0004EE003460B433CD4002243088B4231D3EB
:1003000003098B421CD3030A8B4201D394463FE07E
:10031000C3098B4201D3CB01C01A524183098B42DE
:1003200001D38B01C01A524143098B4201D34B01C7
:10033000C01A524103098B4201D30B01C01A52412A
:10034000C3088B4201D3CB00C01A524183088B42B1
:1003500001D38B00C01A524143088B4201D34B009A
:10036000C01A5241411A00D201465241104670470C
:100370005DE0CA0F00D04942031000D34042534011
:1003800000229C4603098B422DD3030A8B4212D3D1
:10039000FC22890112BA030A8B420CD38901921103
:1003A0008B4208D3890192118B4204D389013AD040
:1003B000921100E08909C3098B4201D3CB01C01A15
:1003C000524183098B4201D38B01C01A5241430928
:1003D0008B4201D34B01C01A524103098B4201D316
:1003E0000B01C01A5241C3088B4201D3CB00C01A83
:1003F000524183088B4201D38B00C01A5241D9D29B
:1004000043088B4201D34B00C01A5241411A00D21B
:100410000146634652415B10104601D34042002B17
:1004200000D54942704763465B1000D3404201B596
:100430000020C046C04602BD7047704770477546F1
:1004400000F024F8AE46050069465346C008C000D7
:10045000854618B020B5FFF78FFE60BC002749081D
:10046000B6460026C0C5C0C5C0C5C0C5C0C5C0C54C
:10047000C0C5C0C5403D49008D46704710B5044613
:10048000C046C0462046FFF766FE10BD00487047D4
:100490007400002001491820ABBEFEE726000200D0
:1004A000704772B6FEE7000070B5044600F0EEF843
:1004B0000546601C02D004480078241800F0E6F8D5
:1004C000401BA042FAD370BD00000020F8B5002305
:1004D00003240125BFE02E469E40B44632407CD026
:1004E0000E79B607B60F012E01D0022E17D18668FD
:1004F0002746B6465E00B74000967646BE43B646EF
:10050000CF68009EB74076463743876046686746A7
:10051000BE430F79FF06FF0F9F40374347600E79B8
:10052000F643B6070ED0C6682746B4465E00B64608
:10053000B7406646BE43B4468F687646B7406646C7
:100540003743C7600E79B607B60F022E14D1DE0806
:10055000B60036180096366A5F07B446FE0E0F27BF
:10056000B646B7406646BE43B4460F697646B740C6
:1005700066463743009E376206682746B4465E00EB
:10058000B646B7406646BE430F79B446BF07BF0FB5
:100590007646B7406646374307604E68B603B60FE7
:1005A00058D0304FBE692E43BE61BE699F08F60722
:1005B000F60F2D4EBF00BE190096B6680F27B44641
:1005C0009E07360FB646B7406646BE430927FF066C
:1005D000B446B84202D1002715E03BE0234FB842B1
:1005E00001D101270FE0224FB84201D102270AE0D2
:1005F000204FB84201D1032705E01F4FB84201D177
:10060000042700E005277646B74066463743009E3C
:10061000B7601A4EB6684F689643FF0200D516437E
:10062000164FBE60FE684F689643BF0200D5164362
:10063000124FFE607E684F689643BF0300D5164395
:100640000E4F7E603E684F689643FF0300D5164309
:100650000A4A16605B1C0A681646DE4000D03AE77C
:10066000F8BD0000001002400000014000040048F6
:1006700000080048000C0048001000480004014039
:10068000002A01D08161704781627047014880680B
:100690007047000000000020024881680278891835
:1006A000816070470000002010B5064801681022E4
:1006B00011430160032000F007F800F027F8002044
:1006C00010BD00000020024070B504460D4D7D2095
:1006D0002978C000FFF703FE01460B480068FFF7CA
:1006E000FEFD00F041FC002809D1042C07D20022B5
:1006F0002146401E00F01EF800206C6070BD0120F5
:1007000070BD0000000000200C00002008B5084863
:100710008169012211438161816911400091C2699F
:1007200001040A43C261C0690840009008BD00008E
:100730000010024010B500F0B1FF10BDF8B50F4633
:1007400006005ED03C4D2868C007C00FB84209D2F1
:10075000286840084000384328602868C007C00F58
:10076000B8424ED13068354C81070CD5400704D5CE
:10077000606807210902084360606068F0218843CF
:10078000B168084360603078C0072BD070680128DA
:1007900010D0022810D0032811D021688907002921
:1007A0002FDA61688908890001436160FFF76EFFF5
:1007B000009010E0216803E021688901EFE7616B98
:1007C0008903ECE7FFF762FF0099411A1C48814258
:1007D00001D90320F8BD60680C21084071688900C8
:1007E0008842EFD12868C007C00FB8420BD92868EB
:1007F00040084000384328602868C007C00FB8424E
:1008000001D00120F8BD3078400706D56068072187
:1008100009028843F1680843606000F017F86168D6
:10082000084A0906090F515CC840074908600320BF
:10083000FFF74AFF0020F8BD0020024000100240F0
:1008400088130000281700080C00002070B5154A16
:1008500051680C200B4603401348042B05D0134D60
:10086000082B03D00C2B00D1284670BD8B02104CF6
:100870001B0FE45CD26A0E4B1207120F1033C90330
:100880009A5C890F022901D0032901D0002301E0DD
:10089000002328460021FFF781FC214600F0E5FEF9
:1008A00070BD00000010024000127A00006CDC02F3
:1008B00008170008FEB5040070D02078F94EFA4DF4
:1008C000C00748D068680007800F01281FD06868FB
:1008D0000007800F022804D16868C003800F022837
:1008E00015D06168012919D001208004002901D0A8
:1008F000052917D02968B1432960296881432960F7
:10090000606800281BD0FFF7C1FE074613E0286887
:10091000800320D560680028CED01CE028683043D2
:100920002860EDE7296801432960F7E7FFF7AEFE8D
:10093000C01B642870D828688003F7D50BE0FFF748
:10094000A5FE074604E0FFF7A1FEC01B6428F1D80E
:1009500028688003F7D4207880073FD568680007AF
:10096000800F14D068680007800F022804D16868DF
:10097000C003800F01280AD0E068002828681ED034
:10098000012108432860FFF781FE07460CE0286834
:1009900080070CD5E068012800D108E080E1FFF76E
:1009A00075FEC01B0228C5D828688007F7D52868BF
:1009B000F82188432169C900084328600EE04008F7
:1009C00040002860FFF762FE074604E0FFF75EFE86
:1009D000C01B0228AED828688007F7D4207800070B
:1009E00023D5E0690028686A0FD0012108436862B6
:1009F000FFF74CFE074604E0FFF748FEC01B022845
:100A000098D8686A8007F7D50FE040084000686210
:100A1000FFF73CFE074605E0C3E0FFF737FEC01BCB
:100A2000022887D8686A8007F7D42078042740070F
:100A3000002861DA00200190E869C00008D4E96963
:100A4000B8060143E961E969014001200091019084
:100A500096480168C90511D40168821511430160E7
:100A6000FFF714FE009005E0FFF710FE0099401A12
:100A7000642898D88D480068C005F5D5A06801287D
:100A80000AD0002801D0052811D0286A400840006B
:100A90002862286AB84302E0286A012108432862D4
:100AA000A068002812D0FFF7F1FD00900AE0286A44
:100AB00038432862F0E7FFF7E9FD0099411A7C48C6
:100AC00081426ED8286A8007F5D50DE0FFF7DEFD7C
:100AD000009006E0FFF7DAFD0099411A7448814260
:100AE0005FD8286A8007F5D40198002804D0E96906
:100AF000012000078143E9612078C00635D560698F
:100B000001280CD0401D686B24D038436863686BA3
:100B1000400840006863FFF7B9FD074622E0686BB4
:100B200038436863686B012108436863FFF7AEFDD3
:100B3000074604E0FFF7AAFDC01B022831D8686B06
:100B40008007F7D5686BF8218843A169C90008437D
:100B500068630AE0B8436863F4E7FFF797FDC01BDA
:100B600002281ED8686B8007F7D42078800637D516
:100B700068680007800F032814D068680007800F9A
:100B8000022804D16868C003800F03280AD0206AB5
:100B90000028686B16D030436863FFF777FD064680
:100BA0000CE062E0686B80031AD5206A012877D1D7
:100BB00016E0FFF76BFD801B022856D8686B800398
:100BC000F7D50DE0B0436863FFF760FD064604E02B
:100BD000FFF75CFD801B022847D8686B8003F7D4C1
:100BE000606A002866D069680907890F022942D027
:100BF000012636060228286805D0B0432860FFF792
:100C000045FD044633E0B0432860FFF73FFD07464B
:100C100004E0FFF73BFDC01B022826D828688001AE
:100C2000F7D4E86A216B000900010843E862A16A71
:100C3000E06A084369687B22D203914308436860F5
:100C4000286830432860FFF721FD044604E0FFF7E1
:100C50001DFD001B022808D828688001F7D529E06F
:100C6000FFF714FD001B022801D90320FEBD2868F0
:100C70008001F5D41EE00128F8D06868E96A0322F3
:100C8000D203A36A02409A420AD10907226B090FD4
:100C9000914205D10F2189040840E16A884209D0B8
:100CA0000120FEBD00000100001002400070004065
:100CB000881300000020F4E7F8B504000CD0606A47
:100CC000002500280AD02561656126464036A562C8
:100CD000707F002808D00BE00120F8BD6168C81FB4
:100CE000FD38F2D0E561F0E73577204600F05CF89A
:100CF000022272772068016840239943016007232C
:100D0000E1681B02994201D9002001E001200003A3
:100D10000F273F02B94202D0994200D0A562FF23BB
:100D20006168053319402127A368BF023B4019437E
:100D300023691340227D1943D207D20F11430123A7
:100D4000A2695B021A401143E26938231A40114339
:100D5000226A80231A401143A26A9B011A40114360
:100D600022681160A1690422090C1140626A1023F3
:100D70001A401143626B08231A4011430F23E268A3
:100D80001B021A4011430122120310400143206844
:100D900041602068C16952109143C16125660120FC
:100DA00070770020F8BD000010B586B0044614210D
:100DB0006846FFF792FA1149206888421CD1104812
:100DC000C26909140A43C261C2690A4005924269B4
:100DD00009010A4342614069084005900720400329
:100DE00000900220002101900320029104910390C1
:100DF00069460448FFF76AFB06B010BD00380040A2
:100E00000010024000040048FFB505460446403586
:100E1000287F002781B01646012809D001202877B5
:100E2000FFF734FC0090687F012804D0022797E088
:100E3000022005B0F0BD0298002874D0002E72D0B8
:100E400003206877002020660299A163A687E687C1
:100E50002064A880E8802065E0640122A068D203B5
:100E60004021904208D1206802688A4302602068CD
:100E700002680B021A43026020680268520602D41C
:100E800002680A4302600721E0680902884260683C
:100E900028D9002801D0012E1ED1A06B216800881E
:100EA000C86006E020688168890709D5A16B0988B8
:100EB000C160A06B801CA063E08F401EE0870BE048
:100EC000FFF7E4FB0099411A0498814202D3401CC9
:100ED00002D005E0002803D0E08F0028E2D128E00E
:100EE00003273BE0002801D0012E1FD1A06B216811
:100EF0000078087306E020688168890709D5A16B2E
:100F000009780173A06B401CA063E08F401EE0874E
:100F10000CE0FFF7BBFB0099411A0498814203D310
:100F2000401C03D0DCE717E00028D9D0E08F002870
:100F3000E1D12046009A049900F078FA002801D007
:100F400020202066A068002803D12068C16880683E
:100F50000090206E002801D0012701E00120687771
:100F600000202877384664E7094910B5401E8842BA
:100F700001D9012010BD074C60610321081F00F05A
:100F80008DFB0020A06107202061002010BD000023
:100F9000FFFFFF0000E000E0FEE7000010B50122C7
:100FA00040210248FFF76CFB10BD0000000800481C
:100FB000F0B5F9B000216A46030AC4B248001354E0
:100FC0008018491C89B24470F029F7D3FF254135B8
:100FD00000212B46F022084600F03AF92C2000F0C0
:100FE00077F900F00FFA002280210A48FFF748FB4A
:100FF0000024661EFF27E13733463A466946064815
:10100000FFF702FF641CA4B2AC42F5D300F004FA6F
:1010100079B0F0BD000800481000002070B5012232
:101020000E4D140221462846FFF72AFB0120FFF748
:101030003BFA002221462846FFF722FB0A20FFF751
:1010400033FA012221462846FFF71AFB7820FFF7E2
:101050002BFA00F005F8FFF7A1FF70BD000800486B
:1010600010B5CF2000F034F9002000F01BF9C120AA
:1010700000F018F9302000F015F9ED2000F028F903
:10108000642000F00FF9032000F00CF9122000F0AA
:1010900009F9812000F006F9E82000F019F985200F
:1010A00000F000F9012000F0FDF87A2000F0FAF8D5
:1010B000CB2000F00DF9392000F0F4F82C2000F0DE
:1010C000F1F8002000F0EEF8342000F0EBF80220F8
:1010D00000F0E8F8F72000F0FBF8202000F0E2F83C
:1010E000EA2000F0F5F8002000F0DCF8002000F025
:1010F000D9F8C02000F0ECF8212000F0D3F8C1208E
:1011000000F0E6F8112000F0CDF8C52000F0E0F87E
:10111000312000F0C7F83C2000F0C4F8C72000F0F0
:10112000D7F89F2000F0BEF8362000F0D1F8082054
:1011300000F0B8F83A2000F0CBF8552000F0B2F8F3
:10114000B12000F0C5F8002000F0ACF81B2000F042
:10115000A9F8B62000F0BCF80A2000F0A3F8A220FD
:1011600000F0A0F8F22000F0B3F8002000F09AF8A8
:10117000262000F0ADF8012000F094F8E02000F007
:10118000A7F80F2000F08EF8202000F08BF81D202B
:1011900000F088F80B2000F085F8102000F082F8AD
:1011A0000A2000F07FF8492000F07CF8A92000F028
:1011B00079F83B2000F076F80A2000F073F815204B
:1011C00000F070F8062000F06DF80C2000F06AF8CE
:1011D000062000F067F8002000F064F8E12000F03D
:1011E00077F8002000F05EF81F2000F05BF8222066
:1011F00000F058F8042000F055F80F2000F052F8E5
:10120000052000F04FF8362000F04CF8462000F0A2
:1012100049F8462000F046F8052000F043F80B207E
:1012200000F040F8092000F03DF8332000F03AF8D3
:10123000392000F037F80F2000F034F8112000F0CA
:1012400047F87820FFF730F9292000F041F810BD69
:10125000F8B505461E4617460C462A2000F038F819
:10126000280A00F01FF8E8B200F01CF8ED196D1E16
:101270002804000E00F016F8E8B200F013F82B2056
:1012800000F026F8200A00F00DF8E0B200F00AF8AD
:10129000A419641E2004000E00F004F8E0B200F06F
:1012A00001F8F8BD01B500F0ADF800228021064834
:1012B000FFF7E6F90023DB43012269460348FFF705
:1012C000A3FD00F0A9F808BD0008004810000020A8
:1012D00001B500F097F8002280210648FFF7D0F909
:1012E0000023DB43012269460348FFF78DFD00F030
:1012F00093F808BD0008004810000020F0B587B042
:1013000014216846FEF7E9FF274842690121C90414
:101310000A43426142690A4005924269C9000A4390
:10132000426142690A400592426909110A434261D9
:1013300042690A400592426949100A434261406984
:101340004C1108400590012221461848FFF798F9F2
:10135000FF27C137002239461548FFF791F90122CE
:101360000920D103C006FFF78BF900940125002462
:101370000326019569460D4803960294FFF7A6F8E7
:1013800069460B480097039601950294FFF79EF873
:10139000E803009009200294694601950394C00671
:1013A000FFF794F807B0F0BD0010024000040048B9
:1013B0000008004810B511480F490160FF210531B0
:1013C000416000210722816012020161C260012296
:1013D00041615202826101624162082281620723F7
:1013E000C261C36242630163FFF766FC002801D05B
:1013F000FFF757F810BD0000003800401000002033
:10140000FEE7704710B50121002209030148FFF7EC
:1014100037F910BD0004004810B50122110302483D
:10142000FFF72EF910BD000000040048F8B50F4684
:101430000B4615460092032104460022C90200F023
:101440001BF82026002812D13B460022802120468E
:10145000009500F07DF8002809D103213B460022C9
:1014600049022046009500F007F8002803D0206EBE
:10147000304320660320F8BDFFB585B00E46044614
:10148000002069460E9D17460871FFF7FFF8411BC3
:101490000898451AFFF7FAF80390206823210C30CA
:1014A00002902A4800684843000D684346E0032044
:1014B0004002864206D1002F04D102980178684686
:1014C000017100790898401C39D0FFF7DFF80399C3
:1014D000401AA84205D2002D03D0009800282BD036
:1014E0002BE020684168E022914341606068C11FA1
:1014F000FD390CD10121A068C903884202D04911ED
:10150000884204D120680168402291430160012093
:10151000A16A4003814207D121680A6882430A60B8
:1015200021680A6802430A60012040346077002085
:101530002077032009B0F0BD0025401E00902068F0
:1015400080683040B842B2D10020F3E70C000020A0
:10155000FFB581B01E4604460A9DFFF797F8401B71
:10156000351AFFF793F80746264800684001000D3A
:10157000684339E0701C38D0FFF788F8C01BA842D8
:1015800005D2002D03D0009800282BD02BE0206836
:101590004168E022914341606068C11FFD390CD170
:1015A0000121A068C903884202D04911884204D1B0
:1015B000206801684022914301600120A16A400334
:1015C000814207D121680A6882430A6021680A685B
:1015D00002430A6001204034607700202077032016
:1015E00005B0F0BD0025401E00902068816802987B
:1015F000884305D0002103988142BBD10020EFE74A
:101600000121F8E70C000020704710B5FFF744F8FF
:1016100010BD30B591B034216846FEF75EFE00245F
:1016200001200F9410940090019000040A90000192
:101630000E9402250B900D9409950C946846FFF7C3
:1016400039F9002801D072B6FEE707200D900F94FB
:1016500001210E9510940DA8FFF770F8002801D015
:1016600072B6FEE711B030BD7047F8B5040C8BB20E
:10167000264682B25E430D0C1046370C58433604A2
:1016800080190021794116466E43370C36048019C3
:10169000794126466E438919F8BD00008307FF2271
:1016A000DB0E9A408907090E9940002808DB830861
:1016B00009489B001B18186890430843186070473E
:1016C0000007000F0838830804489B001B18D869DE
:1016D00090430843D861704700E400E000ED00E06B
:1016E000FEF7E2FFFFF795FFFFF708FEFFF762FE48
:1016F000FFF794FC1F20FFF75BFC01220920D103B8
:10170000C006FEF7BDFFFEE7020304050607080951
:101710000A0B0C0D0E0F101001020304050607083A
:10172000090A0B0C0D0E0F10000000000000000055
:1017300001020304060708095817000800000020EA
:1017400010000000040100086817000810000020C5
:10175000C80600002001000801000000040000008D
:081760000000000000127A00F5
:04000005080000C12E
:00000001FF
