:020000040800F2
:10000000700600206501000891130008F10C00083B
:1000100000000000000000000000000000000000E0
:100020000000000000000000000000009513000820
:100030000000000000000000931300089713000860
:1000400077010008770100087701000877010008B0
:1000500077010008770100087701000877010008A0
:100060007701000877010008770100087701000890
:100070007701000877010008770100087701000880
:100080007701000877010008770100087701000870
:100090007701000877010008770100087701000860
:1000A0007701000877010008770100087701000850
:1000B0007701000877010008770100087701000840
:1000C00000F002F800F03EF80CA030C80838241800
:1000D0002D18A246671EAB4654465D46AC4201D180
:1000E00000F030F87E460F3E0FCCB6460126334274
:1000F00000D0FB1AA246AB4633431847C844000061
:10010000E8440000103A02D378C878C1FAD8520700
:1001100001D330C830C101D504680C6070470000BD
:100120000023002400250026103A01D378C1FBD813
:10013000520700D330C100D50B6070471FB51FBDFB
:1001400010B510BD00F083F91146FFF7F7FF01F07D
:100150002DFA00F09BF903B4FFF7F2FF03BC00F0A7
:100160006FF900000748804707480047FEE7FEE7B1
:10017000FEE7FEE7FEE7FEE704480549054A064BB1
:1001800070470000F5130008C1000008700000204F
:10019000700600207002002070020020FEB50546A7
:1001A00010460C46184373D0AE468C460020AD1A5C
:1001B00001469C4167D36646002701243D46B61A96
:1001C0009D4102D313463A462124654676462F04C4
:1001D000360C3E432D0CB61A9D4104D3150C1B045E
:1001E0002B4312041034654676462F06360A3E43EA
:1001F0002D0AB61A9D4104D3150E1B022B43120281
:100200000834654676462F0736093E432D09B61A4F
:100210009D4104D3150F1B012B431201241D65467C
:100220007646AF07B6083E43AD08B61A9D4104D3E3
:10023000950F9B002B439200A41C65467646EF0762
:1002400076083E436D08B61A9D411AD392185B4159
:10025000641C16E00018764665464941B71A9D4170
:100260000191009009D36046B11A98418E468446A8
:10027000009801990025401C6941DD0752082A4376
:100280005B08641EE6D57246634603B0F0BDFFE727
:1002900000200146C046C0462A462346F5E701E055
:1002A00004C0091F0429FBD28B0701D50280801CE2
:1002B000C90700D00270704700290BD0C30702D0D5
:1002C0000270401C491E022904D3830702D5028014
:1002D000801C891EE3E70022EEE70022DFE7002210
:1002E00003098B422CD3030A8B4211D300239C4673
:1002F0004EE003460B433CD4002243088B4231D3EB
:1003000003098B421CD3030A8B4201D394463FE07E
:10031000C3098B4201D3CB01C01A524183098B42DE
:1003200001D38B01C01A524143098B4201D34B01C7
:10033000C01A524103098B4201D30B01C01A52412A
:10034000C3088B4201D3CB00C01A524183088B42B1
:1003500001D38B00C01A524143088B4201D34B009A
:10036000C01A5241411A00D201465241104670470C
:100370005DE0CA0F00D04942031000D34042534011
:1003800000229C4603098B422DD3030A8B4212D3D1
:10039000FC22890112BA030A8B420CD38901921103
:1003A0008B4208D3890192118B4204D389013AD040
:1003B000921100E08909C3098B4201D3CB01C01A15
:1003C000524183098B4201D38B01C01A5241430928
:1003D0008B4201D34B01C01A524103098B4201D316
:1003E0000B01C01A5241C3088B4201D3CB00C01A83
:1003F000524183088B4201D38B00C01A5241D9D29B
:1004000043088B4201D34B00C01A5241411A00D21B
:100410000146634652415B10104601D34042002B17
:1004200000D54942704763465B1000D3404201B596
:100430000020C046C04602BD7047704770470000AC
:1004400001491820ABBEFEE7260002007047754642
:1004500000F024F8AE46050069465346C008C000C7
:10046000854618B020B5FFF787FE60BC0027490815
:10047000B6460026C0C5C0C5C0C5C0C5C0C5C0C53C
:10048000C0C5C0C5403D49008D46704710B5044603
:10049000C046C0462046FFF75EFE10BD00487047CC
:1004A0001000002070B5044600F0F4F80546601C0A
:1004B00002D004480078241800F0ECF8401BA04259
:1004C000FAD370BD00000020F8B5002303240125F5
:1004D000BFE02E469E40B44632407CD00E79B6072F
:1004E000B60F012E01D0022E17D186682746B646D8
:1004F0005E00B74000967646BE43B646CF68009E83
:10050000B74076463743876046686746BE430F79F3
:10051000FF06FF0F9F40374347600E79F643B6074B
:100520000ED0C6682746B4465E00B646B74066465B
:10053000BE43B4468F687646B74066463743C760C9
:100540000E79B607B60F022E14D1DE08B6003618A3
:100550000096366A5F07B446FE0E0F27B646B740D0
:100560006646BE43B4460F697646B7406646374393
:10057000009E376206682746B4465E00B646B7401E
:100580006646BE430F79B446BF07BF0F7646B740F5
:100590006646374307604E68B603B60F58D0304FF3
:1005A000BE692E43BE61BE699F08F607F60F2D4E49
:1005B000BF00BE190096B6680F27B4469E07360FD7
:1005C000B646B7406646BE430927FF06B446B84262
:1005D00002D1002715E03BE0234FB84201D10127AB
:1005E0000FE0224FB84201D102270AE0204FB84263
:1005F00001D1032705E01F4FB84201D1042700E0D5
:1006000005277646B74066463743009EB7601A4EC8
:10061000B6684F689643FF0200D51643164FBE607A
:10062000FE684F689643BF0200D51643124FFE6026
:100630007E684F689643BF0300D516430E4F7E6019
:100640003E684F689643FF0300D516430A4A16607A
:100650005B1C0A681646DE4000D03AE7F8BD000091
:10066000001002400000014000040048000800485B
:10067000000C0048001000480004014000690840D8
:1006800000D001207047002A01D08161704781624B
:10069000704700000148806870470000000000209B
:1006A0000248816802788918816070470000002044
:1006B00010B506480168102211430160032000F0C4
:1006C00007F800F027F8002010BD000000200240CD
:1006D00070B504460D4D7D202978C000FFF7FFFD61
:1006E00001460B480068FFF7FAFD00F0E9FA002820
:1006F00009D1042C07D200222146401E00F01EF82A
:1007000000206C6070BD012070BD00000000002062
:100710000C00002008B5084881690122114381615D
:10072000816911400091C26901040A43C261C06934
:100730000840009008BD00000010024010B500F015
:1007400007FF10BDF8B50F4606005ED03C4D286887
:10075000C007C00FB84209D228684008400038439B
:1007600028602868C007C00FB8424ED13068354CA9
:1007700081070CD5400704D56068072109020843AA
:1007800060606068F0218843B16808436060307839
:10079000C0072BD07068012810D0022810D0032881
:1007A00011D02168890700292FDA6168890889003A
:1007B00001436160FFF76EFF009010E0216803E0E5
:1007C00021688901EFE7616B8903ECE7FFF762FFBE
:1007D0000099411A1C48814201D90320F8BD606884
:1007E0000C210840716889008842EFD12868C00751
:1007F000C00FB8420BD92868400840003843286031
:100800002868C007C00FB84201D00120F8BD307879
:10081000400706D56068072109028843F16808434C
:10082000606000F017F86168084A0906090F515C1A
:10083000C840074908600320FFF74AFF0020F8BDC1
:10084000002002400010024088130000B445000858
:100850000C00002070B5154A51680C200B4603406F
:100860001348042B05D0134D082B03D00C2B00D1BB
:10087000284670BD8B02104C1B0FE45CD26A0E4BF5
:100880001207120F1033C9039A5C890F022901D095
:10089000032901D0002301E0002328460021FFF7AF
:1008A0007DFC214600F03CFE70BD000000100240BF
:1008B00000127A00006CDC0294450008FEB50400CA
:1008C00070D02078F94EFA4DC00748D0686800070C
:1008D000800F01281FD068680007800F022804D10C
:1008E0006868C003800F022815D06168012919D0FB
:1008F00001208004002901D0052917D02968B143BF
:100900002960296881432960606800281BD0FFF7AF
:10091000C1FE074613E02868800320D560680028E0
:10092000CED01CE0286830432860EDE729680143F9
:100930002960F7E7FFF7AEFEC01B642870D828686F
:100940008003F7D50BE0FFF7A5FE074604E0FFF7AD
:10095000A1FEC01B6428F1D828688003F7D4207852
:1009600080073FD568680007800F14D068680007CB
:10097000800F022804D16868C003800F01280AD0C4
:10098000E068002828681ED0012108432860FFF78E
:1009900081FE07460CE0286880070CD5E068012836
:1009A00000D108E080E1FFF775FEC01B0228C5D822
:1009B00028688007F7D52868F82188432169C9008D
:1009C000084328600EE0400840002860FFF762FE00
:1009D000074604E0FFF75EFEC01B0228AED8286879
:1009E0008007F7D42078000723D5E0690028686ADB
:1009F0000FD0012108436862FFF74CFE074604E070
:100A0000FFF748FEC01B022898D8686A8007F7D510
:100A10000FE0400840006862FFF73CFE074605E033
:100A2000C3E0FFF737FEC01B022887D8686A80073B
:100A3000F7D4207804274007002861DA00200190CD
:100A4000E869C00008D4E969B8060143E961E969C9
:100A5000014001200091019096480168C90511D418
:100A60000168821511430160FFF714FE009005E054
:100A7000FFF710FE0099401A642898D88D48006846
:100A8000C005F5D5A06801280AD0002801D00528A6
:100A900011D0286A400840002862286AB84302E062
:100AA000286A012108432862A068002812D0FFF7B5
:100AB000F1FD00900AE0286A38432862F0E7FFF76A
:100AC000E9FD0099411A7C4881426ED8286A800766
:100AD000F5D50DE0FFF7DEFD009006E0FFF7DAFD4B
:100AE0000099411A744881425FD8286A8007F5D47A
:100AF0000198002804D0E969012000078143E961D9
:100B00002078C00635D5606901280CD0401D686B7F
:100B100024D038436863686B400840006863FFF77F
:100B2000B9FD074622E0686B38436863686B0121B2
:100B300008436863FFF7AEFD074604E0FFF7AAFD30
:100B4000C01B022831D8686B8007F7D5686BF82185
:100B50008843A169C900084368630AE0B843686331
:100B6000F4E7FFF797FDC01B02281ED8686B8007CB
:100B7000F7D42078800637D568680007800F0328EF
:100B800014D068680007800F022804D16868C00389
:100B9000800F03280AD0206A0028686B16D03043E3
:100BA0006863FFF777FD06460CE062E0686B800340
:100BB0001AD5206A012877D116E0FFF76BFD801B5C
:100BC000022856D8686B8003F7D50DE0B043686300
:100BD000FFF760FD064604E0FFF75CFD801B02287E
:100BE00047D8686B8003F7D4606A002866D06968CC
:100BF0000907890F022942D00126360602282868F3
:100C000005D0B0432860FFF745FD044633E0B0430C
:100C10002860FFF73FFD074604E0FFF73BFDC01BE0
:100C2000022826D828688001F7D4E86A216B0009D9
:100C300000010843E862A16AE06A084369687B2210
:100C4000D203914308436860286830432860FFF767
:100C500021FD044604E0FFF71DFD001B022808D813
:100C600028688001F7D529E0FFF714FD001B022852
:100C700001D90320FEBD28688001F5D41EE00128BB
:100C8000F8D06868E96A0322D203A36A02409A4254
:100C90000AD10907226B090F914205D10F2189045E
:100CA0000840E16A884209D00120FEBD0000010031
:100CB0000010024000700040881300000020F4E79C
:100CC000094910B5401E884201D9012010BD074CCA
:100CD00060610321081F00F03BFC0020A061072099
:100CE0002061002010BD0000FFFFFF0000E000E0D9
:100CF000FEE7000010B5012240210248FFF7C3FCC7
:100D000010BD000000080048F1B5FF230021413369
:100D1000F022084600F0A6F92C2000F08DFA0126FA
:100D20000D4F3603002231463846FFF7ACFC012256
:100D300080210A48FFF7A7FC00244B25AD0200984C
:100D400000F096FA641CAC42F9D3012231463846D1
:100D5000FFF799FCF8BD00000004004800080048B7
:100D600070B5144600F044F92C2000F065FA012516
:100D70000B4E2D03002229463046FFF784FC01224A
:100D800080210848FFF77FFC200A00F047F9E0B215
:100D900000F044F9012229463046FFF774FC70BD8B
:100DA000000400480008004870B501220E4D1402EE
:100DB00021462846FFF767FC0120FFF773FB00225E
:100DC00021462846FFF75FFC0A20FFF76BFB012254
:100DD00021462846FFF757FC7820FFF763FB00F019
:100DE0000FF8FFF787FF70BD00080048024601209A
:100DF00000E050430B46491EC9B2002BF9D17047A1
:100E000010B5CF2000F018FA002000F0F9F9C12049
:100E100000F0F6F9302000F0F3F9ED2000F00CFAC4
:100E2000642000F0EDF9032000F0EAF9122000F050
:100E3000E7F9812000F0E4F9E82000F0FDF98520D1
:100E400000F0DEF9012000F0DBF97A2000F0D8F99B
:100E5000CB2000F0F1F9392000F0D2F92C2000F07D
:100E6000CFF9002000F0CCF9342000F0C9F90220BD
:100E700000F0C6F9F72000F0DFF9202000F0C0F9FB
:100E8000EA2000F0D9F9002000F0BAF9002000F0C3
:100E9000B7F9C02000F0D0F9212000F0B1F9C1204D
:100EA00000F0CAF9112000F0ABF9C52000F0C4F938
:100EB000312000F0A5F93C2000F0A2F9C72000F095
:100EC000BBF99F2000F09CF9362000F0B5F908200E
:100ED00000F096F93A2000F0AFF9552000F090F9B3
:100EE000B12000F0A9F9002000F08AF91B2000F0E1
:100EF00087F9B62000F0A0F90A2000F081F9A220BD
:100F000000F07EF9F22000F097F9002000F078F967
:100F1000262000F091F9012000F072F9E02000F0A5
:100F20008BF90F2000F06CF9202000F069F91D20EA
:100F300000F066F90B2000F063F9102000F060F972
:100F40000A2000F05DF9492000F05AF9A92000F0CC
:100F500057F93B2000F054F90A2000F051F9152010
:100F600000F04EF9062000F04BF90C2000F048F993
:100F7000062000F045F9002000F042F9E12000F0E1
:100F80005BF9002000F03CF91F2000F039F9222025
:100F900000F036F9042000F033F90F2000F030F9AA
:100FA000052000F02DF9362000F02AF9462000F047
:100FB00027F9462000F024F9052000F021F90B2044
:100FC00000F01EF9092000F01BF9332000F018F999
:100FD000392000F015F90F2000F012F9112000F06F
:100FE0002BF97820FFF75EFA292000F025F910BDD3
:100FF00070B505460C462A2000F01EF9280A00F0BC
:10100000FFF8E8B200F0FCF82B2000F015F9200AF8
:1010100000F0F6F8E0B200F0F3F870BDF8B5002487
:101020000F4F012605467603280601D5012200E070
:101030000022012189033846FFF725FB00223146B3
:101040003846FFF720FB012231463846FFF71BFBED
:101050006806641C050EE4B2082CE5D3F8BD000058
:1010600000040048F8B505461E4617460C462A20DF
:1010700000F0E2F8280A00F0C3F8E8B200F0C0F887
:10108000ED196D1E2804000E00F0BAF8E8B200F069
:10109000B7F82B2000F0D0F8200A00F0B1F8E0B249
:1010A00000F0AEF8A419641E2004000E00F0A8F8A9
:1010B000E0B200F0A5F8F8BDFFB585B00C4603918D
:1010C000D9081D46580700D0012008186908484370
:1010D000C0B2203A0190D0B20C2D08D0102D0AD009
:1010E000182D0DD0202D40D18001214905E00C2183
:1010F0004843204901E020490001461800202FE024
:10110000242148431D49F8E7775C00200290380607
:1011100001D50F9A03E00E98002804D1184A214601
:101120000598FFF71DFE7806070E641CFF20A4B289
:101130004130844219D20398201AA84207D1059859
:10114000039C401C80B20590F0280ED205E0029866
:10115000401CC0B202900828D9D30098401CC0B2ED
:101160000146009001988142CED309B0F0BD000045
:10117000D42D000814160008881A000878200008EA
:10118000FFFF0000FFB583B000270C981D463C46CA
:10119000460831E0281B401EC1B20A20FFF726FE98
:1011A00001460598FFF79BF80A21FFF798F8002FF2
:1011B00005D1681E844202DA00290DD001270D9A5C
:1011C0000020303101920090CAB23046039960434A
:1011D000401880B20C9B0AE000200D99019100900C
:1011E00030460399604340180C9B80B2202204993A
:1011F000FFF762FF641CE4B2AC42CBD307B0F0BD92
:1012000070B501240A4D06462403002221462846D3
:10121000FFF739FA012280210648FFF734FA3046F9
:10122000FFF7FCFE012221462846FFF72CFA70BD8D
:10123000000400480008004870B501240A4D064625
:101240002403002221462846FFF71DFA00228021B0
:101250000648FFF718FA3046FFF7E0FE0122214664
:101260002846FFF710FA70BD000400480008004847
:1012700070B501250C4E04462D0300222946304648
:10128000FFF701FA012280210848FFF7FCF9200A44
:10129000FFF7C4FEE0B2FFF7C1FE01222946304647
:1012A000FFF7F1F970BD0000000400480008004895
:1012B000F0B587B014216846FFF70FF82F48426950
:1012C0000121C9040A43426142690A400592426908
:1012D000C9000A43426142690A4005924269091104
:1012E0000A43426142690A400592426949100A4331
:1012F000426140690122084021210590C90120482E
:10130000FFF7C1F900221F491D48FFF7BCF9472725
:10131000BF01002239461C48FFF7B5F91B480125DB
:101320000024032600906946039601950294144810
:10133000FFF7CAF8E8030090019469460294104848
:10134000FFF7C2F80820009002200290019469463D
:101350000B48FFF7B9F869460B48009703960195CB
:101360000294FFF7B1F8202000900194694602949E
:101370000348FFF7A9F807B0F0BD000000100240D5
:10138000000400485060000000080048D0700000D1
:10139000FEE77047704710B5FFF782F910BD30B512
:1013A00091B034216846FEF798FF002401200F9485
:1013B00010940090019000040A9000010E94022500
:1013C0000B900D9409950C946846FFF777FA002866
:1013D00001D072B6FEE707200D900F9401210E9503
:1013E00010940DA8FFF7AEF9002801D072B6FEE701
:1013F00011B030BD704700000A48C26981150A4328
:10140000C26102690A43026102698A4302610648B5
:101410002F2181620549C1620168012211430160E7
:10142000704700000010024000200040FFFF000055
:1014300070B5284E05460024224640213046FFF76D
:1014400022F9002210213046FFF71DF900228021E9
:101450003046FFF718F9284600F03EF8062000F065
:1014600099F8002240213046FFF70DF9012000F0E5
:1014700091F8012240213046FFF705F9012000F0E4
:1014800089F8002240213046FFF7FDF8002560046E
:10149000040C002240213046FFF7F5F8012000F04F
:1014A00079F8012240213046FFF7EDF80821304657
:1014B000FFF7E4F8002801D0641CA4B26D1CEDB263
:1014C000102DE4D32409012280213046FFF7DBF8F8
:1014D000204670BD0004004870B5104E054600243B
:1014E000280601D5012200E0002210213046FFF736
:1014F000CAF86806050E002240213046FFF7C3F8FF
:10150000012000F047F8012240213046FFF7BBF8E8
:10151000641CE4B2082CE3D370BD00000004004852
:10152000F8B5040C8BB2264682B25E430D0C104611
:10153000370C5843360480190021794116466E4312
:10154000370C36048019794126466E438919F8BD57
:101550008307FF22DB0E9A408907090E9940002875
:1015600008DB830809489B001B1818689043084350
:10157000186070470007000F0838830804489B0074
:101580001B18D86990430843D861704700E400E015
:1015900000ED00E0044A516A89B2536A5B1A9BB2BB
:1015A0008342FAD370470000002000401CB5FFF7CB
:1015B0007FF8FFF7F4FEFFF77BFEFFF71DFFFFF755
:1015C000F3FB1248FFF7A0FB3F2464011025D02055
:1015D000FFF72EFF07469020FFF72AFF0646062357
:1015E0003A4628211E2000950194FFF7CBFD0623E3
:1015F000324650211E2000950194FFF7C3FD044898
:10160000FEF750FF0148FFF77FFBE0E7FFFF000018
:10161000B80B000000000000000000000000000007
:10162000000000003F40000000000000000030000B
:10163000400030004000000009000BC03D000BC01E
:101640003D00090018C024407FE0224031800000A6
:10165000180024C01B000D803240018003801C4014
:1016600027401C8007400040100060000000000080
:10167000000000000000000000001F80204040200B
:101680000000402020401F800000000009000600EC
:101690001F80060009000000040004003F800400D1
:1016A00004000000001000600000000000000000C6
:1016B00004000400040004000400000000000040D6
:1016C0000000000000000000002001C006003800FB
:1016D000400000001F802040204020401F8000006C
:1016E000000010403FC000400000000018C0214032
:1016F0002240244018400000108020402440244014
:101700001B80000002000D0011003FC001400000DE
:101710003C80244024402440238000001F8024403B
:1017200024403440038000003000200027C03800EF
:10173000200000001B802440244024401B80000027
:101740001C0022C0224022401F8000000000000038
:1017500008400000000000000000000004600000DD
:1017600000000000000004000A001100208040403A
:1017700009000900090009000900000000004040BC
:10178000208011000A0004001800200023402400DB
:10179000180000001F802040274029401F40000003
:1017A000004007C039000F0001C0004020403FC08A
:1017B000244024401B8000001F8020402040204007
:1017C0003080000020403FC0204020401F800000AB
:1017D00020403FC024402E4030C0000020403FC089
:1017E00024402E00300000000F00108020402240D6
:1017F0003380020020403FC0040004003FC020406E
:10180000204020403FC020402040000000602020B9
:1018100020203FC02000200020403FC024400B007B
:1018200030C0204020403FC020400040004000C069
:101830003FC03C0003C03C003FC0000020403FC010
:101840000C4023003FC020001F802040204020404B
:101850001F80000020403FC02440240018000000EA
:101860001F802140214020E01FA0000020403FC0F9
:101870002440260019C0004018C0244024402240C3
:1018800031800000300020403FC020403000000088
:1018900020003F80004000403F80200020003E00AC
:1018A00001C0070038002000380007C03C0007C016
:1018B00038000000204039C0060039C02040000038
:1018C0002000384007C0384020000000304021C0D0
:1018D0002640384020C00000000000007FE040208B
:1018E00040200000000070000C0003800040000059
:1018F0000000402040207FE00000000000002000A9
:101900004000200000000000001000100010001037
:101910000010001000000000400000000000000067
:10192000000002800540054003C0004020003FC089
:101930000440044003800000000003800440044091
:101940000640000000000380044024403FC00040E7
:1019500000000380054005400340000000000440F3
:101960001FC0244024402000000002E00550055024
:101970000650042020403FC00440040003C0004043
:101980000000044027C000400000000000100010CC
:10199000041027E00000000020403FC00140070085
:1019A00004C00440204020403FC0004000400000F0
:1019B00007C0040007C0040003C00000044007C0C3
:1019C0000440040003C000400000038004400440C1
:1019D00003800000041007F004500440038000005E
:1019E000000003800440045007F00010044007C0CA
:1019F00002400400040000000000064005400540CD
:101A000004C00000000004001F80044000400000EB
:101A1000040007800040044007C0004004000700A5
:101A200004C0018006000400060001C0070001C0D8
:101A300006000000044006C0010006C0044000008B
:101A40000410071004E001800600040000000440B8
:101A500005C00640044000000000000004007BE0D8
:101A600040200000000000000000FFF00000000027
:101A7000000040207BE004000000000040008000E7
:101A80004000200020004000000000000000000096
:101A900000000000000000000000000000001FCC5B
:101AA000000C000000000000000008003000600092
:101AB0000800300060000000022003FC1E2002200D
:101AC00003FC1E200220000000000E1811043FFF3E
:101AD00010840C78000000000F0010840F3800C044
:101AE000077818840078000000780F8410C411244F
:101AF0000E9800E4008400080800680070000000F0
:101B0000000000000000000000000000000007E0EE
:101B10001818200440020000000040022004181899
:101B200007E00000000000000240024001800FF0CA
:101B300001800240024000000080008000800FF819
:101B400000800080008000000001000D000E0000F9
:101B50000000000000000000000000800080008005
:101B600000800080008000800000000C000C00005D
:101B700000000000000000000000000600180060E7
:101B80000180060018002000000007F0080810047B
:101B90001004080807F000000000080408041FFCF7
:101BA000000400040000000000000E0C10141024BB
:101BB000104411840E0C000000000C1810041104D5
:101BC000110412880C700000000000E003200424BF
:101BD00008241FFC0024000000001F98108411043A
:101BE0001104108810700000000007F0088811042C
:101BF000110418880070000000001C00100010FC88
:101C000013001C001000000000000E381144108466
:101C1000108411440E38000000000700088C1044A6
:101C20001044088807F00000000000000000030CCA
:101C3000030C00000000000000000000000101068D
:101C400000000000000000000000008001400220B1
:101C500004100808100400000220022002200220C4
:101C600002200220022000000000100408080410D6
:101C7000022001400080000000000E001200100C45
:101C8000106C10800F00000003E00C1813E4142403
:101C900017C4082807D000000004003C03C41C40FF
:101CA000074000E4001C000410041FFC1104110490
:101CB00011040E880070000003E00C1810041004DA
:101CC000100410081C10000010041FFC1004100465
:101CD0001004080807F0000010041FFC1104110490
:101CE00017C410040818000010041FFC1104110090
:101CF00017C010000800000003E00C1810041004C6
:101D000010441C780040000010041FFC1084008068
:101D1000008010841FFC10040000100410041FFC3D
:101D20001004100400000000000300011001100165
:101D30001FFE10001000000010041FFC110403809F
:101D40001464181C1004000010041FFC100400048C
:101D500000040004000C000010041FFC1F0000FC25
:101D60001F001FFC1004000010041FFC0C040300E3
:101D700000E010181FFC100007F008081004100401
:101D80001004080807F0000010041FFC10841080E5
:101D9000108010800F00000007F008181024102495
:101DA000101C080A07F2000010041FFC11041100A7
:101DB00011C011300E0C000400000E1C1104108420
:101DC000108410441C3800001800100010041FFC80
:101DD000100410001800000010001FF81004000488
:101DE000000410041FF8100010001E0011E0001C79
:101DF000007013801C0010001FC0103C00E01F008A
:101E000000E0103C1FC000001004180C163401C084
:101E100001C01634180C100410001C00130400FC40
:101E200013041C00100000000804101C106410842F
:101E300013041C04101800000000000000007FFEC6
:101E40004002400240020000000030000C0003800D
:101E50000060001C0003000000004002400240023D
:101E60007FFE000000000000000000002000400095
:101E700040004000200000000001000100010001BE
:101E800000010001000100010000400040002000AE
:101E90000000000000000000000000980124014440
:101EA0000144014400FC000410001FFC00880104F0
:101EB0000104008800700000000000700088010428
:101EC0000104010400880000000000700088010483
:101ED000010411081FFC0004000000F80144014443
:101EE0000144014400C800000000010401040FFC8B
:101EF0001104110411001800000000D60129012965
:101F0000012901C90106000010041FFC0084010022
:101F10000100010400FC000400000104190419FC84
:101F200000040004000000000000000300010101A3
:101F3000190119FE0000000010041FFC00240040DD
:101F400001B4010C010400000000100410041FFC87
:101F50000004000400000000010401FC0104010071
:101F600001FC0104010000FC010401FC00840100EB
:101F70000100010400FC0004000000F80104010459
:101F80000104010400F80000010101FF00850104C3
:101F90000104008800700000000000700088010447
:101FA0000104010501FF00010104010401FC00849A
:101FB0000104010001800000000000CC0124012484
:101FC000012401240198000000000100010007F82D
:101FD0000104010400000000010001F800040004F5
:101FE0000004010801FC0004010001800170000CE4
:101FF000001001600180010001F0010C003001C0FF
:102000000030010C01F0010000000104018C00749B
:102010000170018C01040000010101810171000EB9
:10202000001801600180010000000184010C0134EE
:1020300001440184010C00000000000000000000C9
:1020400001003EFC400240020000000000000000D1
:10205000FFFF0000000000000000400240023EFCC4
:10206000010000000000000000006000800080000F
:1020700040004000200020000000000000000000A0
:102080000000000000000000000000000000000050
:102090000000000000000000000000000000000040
:1020A00000000000000000000000000F80380FFE5C
:1020B000380F803800000000000000000000000021
:1020C0000000000000000100000600000C000038C5
:1020D00000003100000600000C0000380000300055
:1020E000000000000000000061800067F807F98030
:1020F0000061800061800061800061800067F807F6
:10210000F98000618000000000000000000001C0B4
:10211000E003E0F00630080418081FFFFE040E0874
:102120000787F00381E000000000000001F00006D6
:102130000C00040408060C7001F9C0000E00003BFE
:10214000E000EC18070808040C180003E000000089
:102150000001E00007F003F818041C080417080742
:10216000E1D003C0E00023B0003C080020080000DC
:1021700010000000000000010000310000320000EB
:102180001C00000000000000000000000000000033
:10219000000000000000000000000000000000003F
:1021A00000000000000000007F0001FFC00780F079
:1021B0000C001810000420000200000000000020A5
:1021C00000021000040C00180780F001FFC0007F1F
:1021D00000000000000000000000000000000000FF
:1021E000000000004200006600006600003C0000A5
:1021F000180003FFC0001800003C000066000066E5
:102200000000420000000000080000080000080074
:1022100000080000080001FFC000080000080000DE
:102220000800000800000800000000000001000095
:102230003100003200001C0000000000000000001F
:10224000000000000000000000000000000000008E
:10225000080000080000080000080000080000084E
:10226000000008000008000008000008000000004E
:1022700000000000000000003800003800003800B6
:10228000000000000000000000000000000000004E
:102290000000000000000000000600001C000070AC
:1022A000000180000E0000380000C0000700001C84
:1022B0000000300000000000000000007F8001FFEF
:1022C000E0038070060018040008040008060018E7
:1022D00003807001FFE0007F80000000000000002C
:1022E000000001000801000801000803FFF807FFD3
:1022F000F8000008000008000008000000000000CE
:1023000000000001C03802C05804009804011804FD
:102310000218040418061C1803F81801E0F800005D
:102320000000000000000001C0E003C0F00400084D
:1023300004080804080806180803F41801E7F00068
:1023400001E0000000000000000000000300000D9C
:102350000000110000610000810803010807FFF878
:102360000FFFF80001080001080000000000000055
:1023700000E007FCD0060808061008061008061042
:1023800008061838060FF00607C00000000000001D
:10239000000000003F8001FFE003843002081804C1
:1023A0001008041008041008071810030FF00007A5
:1023B000C000000000000000000003C00007000093
:1023C0000600000600F80607F806180006E00007F9
:1023D000000006000000000000000001E1E003F73B
:1023E000F0063410041808041808040C08040C083B
:1023F00006161803F3F001C1E00000000000000021
:10240000F80003FC30030638040208040208040242
:10241000080404100308F001FFC0007F0000000062
:1024200000000000000000000000000000000000AC
:1024300070380070380070380000000000000000A4
:10244000000000000000000000000000000000008C
:1024500000000000301A00301C00000000000000E6
:102460000000000000000000000000000000000864
:1024700000001400002200004100008080010040A4
:102480000200200400100800080000000000000006
:102490002100002100002100002100002100002176
:1024A00000002100002100002100002100000000A8
:1024B00000000000000008000804001002002001D5
:1024C000004000808000410000220000140000084D
:1024D0000000000000000003C00004C00004000071
:1024E000080038080F380808380810000C300007BA
:1024F000E00003C000000000000000003F8000FF7B
:10250000E0038070020F1006708804C088048308FE
:10251000047F8802C09003012000FE4000000800F4
:1025200000180001F8003E0801C20007020007E29F
:102530000000FE00001FC80001F80000380000087D
:1025400004000807FFF807FFF80408080408080457
:10255000080804080806180803F41801E7F0000149
:10256000E0000000000000003F8001FFE0038070F9
:102570000200180400080400080400080400100603
:1025800000200780C000000004000807FFF807FFD4
:10259000F8040008040008040008040018020010F1
:1025A00003807001FFE0007F800000000400080746
:1025B000FFF807FFF80408080408080408080408DE
:1025C00008043E080400080600180100600000002E
:1025D00004000807FFF807FFF804080804080004CF
:1025E0000800040800043E00060000060000018008
:1025F00000000000000000003F8001FFE003807049
:102600000600180400080402080402080203F00788
:1026100083F000020000020004000807FFF807FF33
:10262000F80408080008000008000008000008007E
:1026300004080807FFF807FFF8040008000000007E
:10264000000004000804000804000807FFF807FF62
:10265000F80400080400080400080000000000005E
:102660000000000000060000070000010400010453
:10267000000104000307FFFE07FFFC040000040044
:102680000004000004000807FFF807FFF8040C0826
:10269000001800003E0004C7800503C80600F804C7
:1026A000003804001800000804000807FFF807FFBE
:1026B000F8040008000008000008000008000008F6
:1026C0000000080000180000600000000400080777
:1026D000FFF807800807FC00007FC00003F8000730
:1026E000C000780007800807FFF807FFF80400081B
:1026F00004000807FFF807000803C00000E000001E
:102700003800001E000007000001C00400F007FFB1
:10271000F8040000000000007F8001FFE0038070EB
:102720000600180400080400080600180300300121
:10273000FFE0007F8000000004000807FFF807FFAB
:10274000F804040804040004040004040004040061
:10275000060C0003F80001F000000000000000007B
:102760007F8001FFE0038070060088040088040079
:10277000C806003C03003E01FFE6007F8400000025
:1027800004000807FFF807FFF8040808040800041D
:102790000C00040F00040BC00610F003F03801E039
:1027A0000800000800000001E0F803F030063010D7
:1027B000041808041808040C08040C08020618027F
:1027C00007F00781E000000001800006000004001F
:1027D0000004000004000807FFF807FFF8040008E1
:1027E000040000040000060000018000040000074F
:1027F000FFE007FFF00400180000080000080000D8
:102800000800000800000804001007FFE0040000B2
:1028100004000006000007E00007FE00041FE000BF
:1028200001F80000380001E0043E0007C000060087
:102830000004000004000007E00007FFC0041FF8C8
:102840000007C007F80007FF80043FF80007C00436
:10285000F800070000040000000000040008060063
:102860001807C07805F1C8003E00001F800463E827
:102870000780F806001804000800000004000006A5
:10288000000007800007E008047C08001FF800072C
:10289000F800180804E00807000006000004000023
:1028A0000000000100080600380400F80403E804F2
:1028B0000F08047C0805F00807C00807001804008A
:1028C00060000000000000000000000000000000A8
:1028D0000000003FFFFE2000022000022000022036
:1028E00000022000020000000000000000000800BC
:1028F0000007000000C0000038000006000001C012
:1029000000003000000E0000010000000000000088
:10291000000020000220000220000220000220000F
:10292000023FFFFE00000000000000000000000069
:10293000000000000000000000080000100000304F
:10294000000020000030000010000008000000001F
:102950000000000000000100000100000100000173
:102960000000010000010000010000010000010062
:102970000001000001000001000000000000000054
:1029800000200000200000100000100000000000E7
:102990000000000000000000000000000000000037
:1029A00000F00019F8001B18002208002608002477
:1029B00008002410003FF8001FF80000080000186D
:1029C00000000004000007FFF80FFFF000181800D7
:1029D0001008002008002008003018001FF0000F29
:1029E000C00000000000000007C0001FF000183009
:1029F000002008002008002008003C08001C1000EF
:102A000000600000000000000000000007C0001F80
:102A1000F0003818002008002008002008041010DA
:102A200007FFF80FFFF0000010000000000000009A
:102A300000000007C0001FF0001230002218002222
:102A400008002208003208001E10000E20000000BE
:102A500000000000200000200800200801FFF8030B
:102A6000FFF80620080420080420080720000300BF
:102A70000000000000000000000E000E6E001FF3BA
:102A80000031B10020B10020B1003191001F1300CE
:102A90002E1E00200E00300000000004000807FF7A
:102AA000F80FFFF8001008002000002000002008A8
:102AB000003FF8001FF800000800000000000000C0
:102AC0000000002008002008002008063FF8063F0C
:102AD000F8000008000008000008000000000000E6
:102AE00000000000000000000300000300200100BF
:102AF0002001002003063FFE063FFC00000000000E
:102B00000000000000000004000807FFF80FFFF8B5
:102B1000000188000300002FC00038F800203800B2
:102B20002008000008000000000000000000040071
:102B30000804000804000807FFF80FFFF800000869
:102B4000000008000008000000000000002008004D
:102B50003FF8003FF8001008002000003FF8003F59
:102B6000F8001008002000003FF8003FF8000008BF
:102B7000000000002008003FF8003FF800100800A7
:102B80001000002000002008003FF8001FF800009F
:102B9000080000000000000007C0000FF00018301F
:102BA000003008002008002008003008001830001D
:102BB0000FF00007C0000000000000002001003FEF
:102BC000FF003FFF0010110020090020080020082E
:102BD000003038001FF0000FC000000000000000AF
:102BE00007C0001FF000381800200800200800204F
:102BF00009001011001FFF003FFF0000010000004E
:102C0000002008002008002008003FF8003FF800DE
:102C100008080010080020080020000030000030E4
:102C200000000000000000000000000C78001E18EA
:102C300000330800230800210800218800219800A3
:102C400030F000386000000000000000200000208C
:102C50000000200000FFF003FFF80020080020081B
:102C6000002008000030000000000000000000000C
:102C70002000003FF0007FF800001800000800006E
:102C800008002010003FF8007FF000001000000056
:102C9000000000002000003000003C00003F8000E9
:102CA00023F0000078000070002380003C0000301A
:102CB00000002000002000003C00003FE00023F85E
:102CC0000000E0002700003E00003FE00021F80087
:102CD00001E0003E0000200000000000200800206D
:102CE00008003838003E680027800003C8002CF830
:102CF0000038380020180020080000000000000004
:102D00002000003003003C01003F830023EC000062
:102D100070002380003C0000200000200000000024
:102D20000000000000000038080020380020F800F3
:102D300023E8002F88003E08003808002018000013
:102D40007000000000000000000000000000000013
:102D50000000000008000014001FF7FC30000620EF
:102D60000002000000000000000000000000000061
:102D700000000000000000000000FFFFFF00000056
:102D80000000000000000000000000000000000043
:102D900000002000023000061FF7FC0014000008AD
:102DA0000000000000000000000000000000000023
:102DB00000000018000060000040000040000020FB
:102DC00000001000000800000400000400000C00D7
:102DD00000100000000000000000000000000000E3
:102DE00000000000000000000000000000000000E3
:102DF00000000000000000000000000000000000D3
:102E000000000000000000000000000000000000C2
:102E100000000000000000000000000000000000B2
:102E200000000000000000000000000007F000C0EB
:102E300007FFE1E007F001E0000000C00000000033
:102E40000000000000000000000000000000000082
:102E50000000000000000000000000000020000052
:102E600001C00000078000001F0000001E000000DD
:102E70001C20000001C00000078000001F000000AF
:102E80001E0000001C000000000000000000000008
:102E9000000000000000000000180C0000180C00EA
:102EA00000180FE0001FFC0003F80C0000180C00D5
:102EB00000180C0000180C0000180C0000180FE09F
:102EC000001FFC0003F80C0000180C0000180C0098
:102ED000000000000000000000000000000007806B
:102EE000007807C000FC0640010E00200307002008
:102EF000020380200FFFFFFC0201C0200200E060FF
:102F00000130704001F03F8000F01F000000000021
:102F10000000000000FE000001FF0000030180002F
:102F200002008060030181C001FF070000FE18005D
:102F30000000E0000003BF00000CFFC000718060D3
:102F400001C10020030180600000FFC000003F00BD
:102F50000000000000001F0000007FC000FCC0C097
:102F600001FF80600303E0200202782002061E2099
:102F700003FC074001F00380000103C000011C6056
:102F80000001E0200001002000010040000001805D
:102F90000000000000000000002000001C60000095
:102FA0001C4000001F8000000F0000000000000017
:102FB0000000000000000000000000000000000011
:102FC0000000000000000000000000000000000001
:102FD00000000000000000000000000000000000F1
:102FE00000000000000000000000000000000000E1
:102FF0000007F800003FFF00007807C001C000E0B4
:103000000300003004000008080000041000000263
:103010000000000000000000100000020800000492
:10302000040000080300003001C000E0007807C081
:10303000003FFF000007F800000000000000000053
:103040000000000000000000000000000000000080
:10305000000000000000000000000000000C18004C
:10306000000E3800000E380000063000000360003B
:103070000061438000FFFF800061430000036000A7
:1030800000063000000E3800000E3800000C18005A
:1030900000000000000000000000000000008000B0
:1030A0000000800000008000000080000000800020
:1030B00000008000007FFF00000080000000800012
:1030C0000000800000008000000080000000800000
:1030D000000000000000000000000001000000E30C
:1030E000000000E2000000FC00000078000000008A
:1030F00000000000000000000000000000000000D0
:1031000000000000000000000000000000000000BF
:1031100000000000000000000000800000008000AF
:10312000000080000000800000008000000080009F
:10313000000080000000800000008000000080008F
:10314000000080000000800000008000000080007F
:10315000000000000000000000000000000000C0AF
:10316000000001E0000001E0000000C000000000DD
:10317000000000000000000000000000000000004F
:10318000000000000000000000000000000000003F
:1031900000000000000000000000000C00000038EB
:1031A000000000E00000038000000E000000380076
:1031B0000000E00000038000000E00000038000066
:1031C00000E00000038000000E0000001800000076
:1031D000000000000000000000000000000FF800E8
:1031E000007FFF0000F00780018000C00300006046
:1031F0000200002002000020020000200300006006
:10320000018000C000E00380007FFF00000FF80095
:1032100000000000000000000000000000000000AE
:1032200000800020008000200080002000800060DE
:1032300001FFFFE003FFFFE000000060000000204E
:10324000000000200000002000000000000000003E
:10325000000000000000000000000000007800E016
:103260000098016001000260020004600200086032
:1032700002001060020020600200406003008060D5
:103280000183006001FE00E0007C07800000000078
:1032900000000000000000000000000000F00780B7
:1032A00001F007C0010000400200002002010020E0
:1032B00002010020020100200303802001868040DB
:1032C00001FCC0C000787F8000001E0000000000EC
:1032D00000000000000000000000080000003800AE
:1032E000000048000001880000060800000C0810DB
:1032F000003008100040081001FFFFF003FFFFF04E
:1033000003FFFFF000000810000008100000081084
:103310000000000000000000000000000000078026
:10332000001F864003E10020030200200304002068
:1033300003040020030400200304002003060040CF
:10334000030301C00301FF8003007E0000000000B2
:103350000000000000000000000000000007FC006A
:10336000003FFF000070C380008180C00101006049
:1033700003020020020200200202002002020020BC
:103380000203004001C180C000C0FF8000007E0039
:1033900000000000000000000000000000F000003D
:1033A00003C000000380000003000000030007E0EA
:1033B00003003FE00301C000030600000318000003
:1033C0000360000003800000030000000000000014
:1033D000000000000000000000001F0000783F8097
:1033E00000FC60C0018EC040030780200203002063
:1033F00002018020020180200201C0200301E04080
:10340000018670C000FC3F8000781F0000000000B3
:103410000000000000000000003F000000FF81C02D
:1034200001C0C1C001006020020020200200202055
:103430000200202002002060020040C00100C18084
:1034400000C18F00007FFE00001FF00000000000A0
:10345000000000000000000000000000000000006C
:10346000000000000000000000000000000300C099
:10347000000781E0000781E0000300C000000000B9
:10348000000000000000000000000000000000003C
:10349000000000000000000000000000000000002C
:1034A00000000000000000000000000000060066B0
:1034B000000600780000000000000000000000008E
:1034C00000000000000000000000000000000000FC
:1034D000000000000000000000000000000080006C
:1034E0000001C0000003600000063000000C18005E
:1034F00000180C00003006000060030000C00180CE
:103500000100004002000020040000100000000044
:103510000000000000000000000410000004100083
:10352000000410000004100000041000000410004B
:10353000000410000004100000041000000410003B
:10354000000410000004100000041000000410002B
:103550000000000000000000000000000400001057
:10356000020000200100004000C001800060030054
:103570000030060000180C00000C18000006300097
:10358000000360000001C000000080000000000097
:1035900000000000000000000000000000780000B3
:1035A00001F800000238000002000000040000C022
:1035B000040079E0040081E0040100C0040300007D
:1035C000020200000306000001FC000000F80000F9
:1035D0000000000000000000000FF800003FFE00A7
:1035E0000070078000C000C00101F8400307FC2004
:1035F000021E04200230082002203020023FFC205E
:10360000013F044001800CC000E03180001FC20077
:10361000000000000000002000000060000003E047
:1036200000003E200003E020003E200003E02000D8
:103630000380200007FC2000003FE0000003FE2084
:1036400000003FE0000001E000000020000000203A
:103650000000000000000000020000200200002026
:1036600003FFFFE003FFFFE0020100200201002052
:1036700002010020020100200201002003030020BB
:103680000186806001FCC0C000F87F8000001F0040
:1036900000000000000000000007F800003FFF00ED
:1036A0000070078000C000C001000040030000203F
:1036B0000200002002000020020000200200002082
:1036C00001000040018000C003C0018000300600FE
:1036D00000000000000000000200002002000020A6
:1036E00003FFFFE003FFFFE00200002002000020D4
:1036F00002000020020000200300006001000040E2
:10370000018000C000F00780007FFE00000FF8007D
:103710000000000000000000020000200200002065
:1037200003FFFFE003FFFFE0020100200201002091
:10373000020100200201002002010020020380207B
:10374000020FE0200300006003C000E000600300FF
:103750000000000000000000020000200200002025
:1037600003FFFFE003FFFFE0020100200201002051
:10377000020100000201000002010000020100003D
:1037800002038000030FE0000300000003C00000FC
:1037900000600000000000000007F800003FFE008D
:1037A0000070078001C001C001000040030000203C
:1037B0000200002002000020020000200100202062
:1037C0000100204003C03F8000303F800000200007
:1037D00000002000020000200200002003FFFFE0A4
:1037E00003FFFFE002008020020080200000800034
:1037F0000000800000008000020080200200802085
:1038000003FFFFE003FFFFE00200002002000020B2
:1038100000000000000000000000000000000000A8
:103820000200002002000020020000200200002010
:1038300003FFFFE003FFFFE0020000200200002082
:103840000200002002000020000000000000000034
:1038500000000000000000000000000E0000000F4B
:103860000000000F00000001020000010200000142
:10387000020000030200000603FFFFFC03FFFFF845
:103880000200000002000000020000000200000030
:1038900000000000000000000200002002000020E4
:1038A00003FFFFE003FFFFE00200C0200201002051
:1038B00000078000000FE0000030F80002603E20AA
:1038C00003800F20030003E0020000E0020000205C
:1038D0000000002000000000020000200200002084
:1038E00003FFFFE003FFFFE00200002002000020D2
:1038F0000000002000000020000000200000002048
:103900000000002000000060000000E00000030054
:1039100000000000020000200200002003FFFFE082
:1039200003E0002003FF0020001FF0000001FF80E3
:1039300000000FE000001E000003E000003E002039
:1039400003E0002003FFFFE003FFFFE00200002090
:1039500002000020020000200200002003FFFFE020
:103960000380002003F0002000FC0000001F000086
:103970000007C0000001F00000007C0002001F8072
:10398000020007E003FFFFE0020000000200000069
:103990000000000000000000000FF800003FFE00E3
:1039A00000F00780018000C00100004002000020FC
:1039B0000200002002000020020000200100004060
:1039C000018000C000F00380003FFE00000FF800FF
:1039D00000000000000000000200002002000020A3
:1039E00003FFFFE003FFFFE00200802002008020D1
:1039F00002008000020080000200800002008000BF
:103A0000030180000183000000FE0000007C000034
:103A10000000000000000000000FF800007FFF0021
:103A200000F00380018001C0010006400200042074
:103A30000200042002000620020003E0010000F85A
:103A40000180005C00E0038C003FFF0C000FFC18BD
:103A50000000000000000000020000200200002022
:103A600003FFFFE003FFFFE002010020020100204E
:103A7000020180000201E0000201FC0003033F801C
:103A8000018607E001FC00E000F8002000000020B3
:103A900000000000000000000000000000780600A8
:103AA00000FE01E0018600C0030300400203002085
:103AB00002018020020180200201C0200200C020FB
:103AC0000100E060018070C003E03F8000001F0043
:103AD0000000000000000000006000000380000003
:103AE000030000000200000002000020020000208D
:103AF00003FFFFE003FFFFE00200002002000020C0
:103B000002000000020000000380000000E000004E
:103B100000000000020000000200000003FFFF00A0
:103B200003FFFFC002000040020000600000002010
:103B300000000020000000200000002002000040E3
:103B40000200008003FFFF000200000002000000EE
:103B50000000000000000000020000000200000061
:103B600003C0000003FC0000023FC0000003F80097
:103B700000007F80000007E0000007800000780060
:103B80000203C000023C000003C00000020000006D
:103B9000020000000200000003C0000003FF8000DC
:103BA000023FFE0002007FE000000F000200F00074
:103BB00003EF000003FF8000020FFE0000003FE063
:103BC00000001F000207E00003F8000003000000EF
:103BD000020000000000000002000020020000209F
:103BE000038000E003F0032002FC0C20021F3000E1
:103BF0000007C0000007F00002187C0002601F20D0
:103C0000038003E0020000E002000020000000202A
:103C1000000000000000000002000000030000009F
:103C200003C0000003F80000023E0020020FC02085
:103C30000001FFE000007FE000038020021C002064
:103C4000027000000380000002000000020000007B
:103C5000000000000000000000000020006000E004
:103C6000038003E003000FA002003E200200F820C2
:103C70000203E020020F8020023E00200278002094
:103C800003E00060038000E0020003000000000089
:103C90000000000000000000000000000000000024
:103CA0000000000000000000000000001FFFFFFCFB
:103CB00010000004100000041000000410000004B4
:103CC00010000004100000041000000400000000B8
:103CD00000000000000000000000000000000000E4
:103CE0000700000003C0000000780000001E000074
:103CF0000003C0000000F00000001E00000007806C
:103D0000000000F00000003C000000060000000081
:103D1000000000000000000000000000100000048F
:103D20001000000410000004100000041000000443
:103D300010000004100000041FFFFFFC0000000042
:103D40000000000000000000000000000000000073
:103D50000000000000000000000000000000000063
:103D60000000000002000000040000000800000045
:103D700018000000100000001800000018000000EB
:103D8000040000000200000000000000000000002D
:103D90000000000000000001000000010000000120
:103DA000000000010000000100000001000000010F
:103DB00000000001000000010000000100000001FF
:103DC00000000001000000010000000100000001EF
:103DD00000000001000000000000000000000000E2
:103DE000100000001000000010000000180000008B
:103DF00008000000040000000000000000000000B7
:103E000000000000000000000000000000000000B2
:103E100000000000000000000000038000018FC0CF
:103E200000038C60000618200004102000041020FD
:103E30000004202000042040000620400003FFC0B2
:103E40000001FFE00000002000000020000000C092
:103E5000000000000000000002000000020000005E
:103E600003FFFFE007FFFFC0000180C00002006009
:103E700000020020000400200004002000040020B4
:103E800000060040000300C00001FF800000FE00AB
:103E900000000000000000000000000000007E00A4
:103EA0000001FF80000381C00002004000060020E6
:103EB0000004002000040020000400200006002070
:103EC0000003C0400001C0800000030000000000AB
:103ED00000000000000000000000000000007E0064
:103EE0000001FF80000380C0000600600004002085
:103EF00000040020000400200204004002020080B0
:103F000003FFFFE007FFFFC000000040000000408B
:103F100000000000000000000000000000007E0023
:103F20000001FF80000311C0000210400004106077
:103F300000041020000410200004102000061020AF
:103F4000000310400001F0C00000710000000000FC
:103F5000000000000000000000000000000400005D
:103F6000000400200004002000040020007FFFE087
:103F700001FFFFE0010400200304002002040020F0
:103F800002040020020400000200000001C0000042
:103F900001C0000000000000000000000000001C44
:103FA0000000E33E0003FFC200020CC3000404C192
:103FB000000404C1000404C1000404C100060CC1D3
:103FC0000003F8C30005F0620006007E0006003C16
:103FD000000000000000000002000020020000209D
:103FE00003FFFFE007FFFFE00001002000020020C8
:103FF000000600000004000000040000000400208F
:10400000000600200003FFE00001FFE000000020A8
:104010000000002000000000000000000000000080
:104020000004002000040020000400200004002000
:104030000387FFE0038FFFE00380002000000020E3
:104040000000002000000020000000000000000030
:104050000000000000000000000000000000000060
:104060000000000600000007000000010000000141
:104070000004000100040001000400030004000625
:104080000387FFFC038FFFF803800000000000009F
:1040900000000000000000000200002002000020DC
:1040A00003FFFFE007FFFFE00000082000001020F2
:1040B000000030000000FC0000058E00000707A093
:1040C000000601E0000400E00004002000000020E1
:1040D00000000000000000000000000000000000E0
:1040E0000200002002000020020000200200002048
:1040F00003FFFFE007FFFFE00000002000000020BA
:10410000000000200000002000000000000000006F
:104110000000000000000000000400200007FFE095
:10412000000FFFE000020020000400000004002057
:104130000007FFE00003FFE0000200200004000091
:10414000000400200007FFE00003FFE00000002063
:104150000000000000000000000400200004002017
:104160000007FFE0000FFFE0000100200002002038
:104170000002000000040000000400000004002011
:10418000000600200003FFE00001FFE00000002027
:1041900000000020000000000000000000007E0081
:1041A0000000FF80000381C00002004000060020E4
:1041B000000400200004002000040020000600206D
:1041C00000020040000381C00001FF8000007E006B
:1041D00000000000000000000004000100040001D5
:1041E0000007FFFF000FFFFF000100C100020041B8
:1041F000000400200004002000040020000400202F
:1042000000060040000301C00001FF8000007E00A6
:1042100000000000000000000000000000007E0020
:104220000001FF80000380C0000200600004002045
:1042300000040020000400200004002000020041CF
:10424000000300C10003FFFF0007FFFF00000001A3
:104250000000000100000000000400200004002015
:104260000004002000040020000FFFE0000FFFE02A
:104270000000C020000100200002002000060020F5
:10428000000400000004000000070000000300001C
:10429000000000000000000000000000000003E03B
:1042A0000001C0E00003E0400006302000043020A0
:1042B00000041820000418200004182000040C201A
:1042C00000020C60000307C00007838000000000AC
:1042D00000000000000000000000000000040000DA
:1042E0000004000000040000000C0000001FFF801C
:1042F00000FFFFC000040060000400200004002054
:1043000000040020000400400000018000000000C4
:104310000000000000000000000400000004000095
:104320000007FF80000FFFC00000006000000020B9
:1043300000000020000000200000002000040040D9
:10434000000400800007FFE0000FFFC000000040F5
:104350000000004000000000000400000004000015
:10436000000780000007F0000004FE0000041FC0EA
:10437000000003E00000038000001C000004600057
:10438000000780000006000000040000000000009C
:104390000000000000040000000600000007C0004C
:1043A0000007FC0000043F80000003E000040F80D1
:1043B0000006F0000007F0000007FF8000040FE097
:1043C0000000038000043C000007C000000600005D
:1043D0000004000000000000000000200004002095
:1043E00000040060000700E0000783200007E600EB
:1043F0000004F80000003C0000045E20000587A0D7
:10440000000601E00004006000040020000000201D
:104410000000000000000000000400000004000391
:10442000000700030007E0010004F80100041F0278
:10443000000007FC000000E0000007000004380056
:104440000007C00000060000000400000004000097
:104450000000000000000000000000000007806075
:10446000000600E0000403E0000407A000040E20A2
:1044700000043C20000470200005E020000780209C
:1044800000070060000400E000000380000000005E
:10449000000000000000000000000000000000001C
:1044A000000000000000000000000000000000000C
:1044B00000008000000080000001400007FE3FF87F
:1044C00008000004100000021000000200000000BC
:1044D00000000000000000000000000000000000DC
:1044E00000000000000000000000000000000000CC
:1044F00000000000FFFFFFFF0000000000000000C0
:1045000000000000000000000000000000000000AB
:104510000000000000000000000000001000000289
:10452000100000020800000407FE3FF800014000F0
:10453000000080000000800000000000000000007B
:10454000000000000000000000000000000000006B
:104550000000000000000000180000003000000013
:10456000400000004000000040000000200000006B
:1045700030000000080000000400000002000000FD
:1045800002000000020000000C0000001800000003
:104590000000000002030405060708090A0B0C0DC1
:1045A0000E0F10100102030405060708090A0B0C80
:1045B0000D0E0F10000000000000000001020304B7
:1045C00006070809E445000800000020100000006C
:1045D00004010008F44500081000002060060000F7
:1045E000200100080100000004000000000000009D
:0445F00000127A003B
:04000005080000C12E
:00000001FF
