:020000040800F2
:1000000038050020CD010008D1010008D301000807
:10001000D5010008D7010008D90100080000000040
:10002000000000000000000000000000DB010008EC
:10003000DD01000800000000DF010008E101000808
:10004000E3010008E3010008E3010008E301000800
:10005000E3010008E3010008E3010008E3010008F0
:10006000E3010008E3010008E3010008E3010008E0
:10007000E3010008E3010008E3010008E3010008D0
:10008000E3010008E3010008E3010008E3010008C0
:10009000E3010008E3010008E3010008E3010008B0
:1000A000E3010008E3010008E3010008E3010008A0
:1000B000E3010008E3010008E3010008E301000890
:1000C000E3010008E3010008E3010008E301000880
:1000D000E301000871020008E3010008E3010008E1
:1000E000E3010008E3010008E3010008E301000860
:1000F000E3010008E3010008E3010008E301000850
:10010000E3010008E3010008E3010008E30100083F
:10011000E3010008E3010008E3010008E30100082F
:10012000E3010008E3010008E3010008E30100081F
:1001300000F002F800F03AF80AA090E8000C8244BF
:100140008344AAF10107DA4501D100F02FF8AFF29C
:10015000090EBAE80F0013F0010F18BFFB1A43F0A5
:10016000010318470805000028050000103A24BFC5
:1001700078C878C1FAD8520724BF30C830C144BF0C
:1001800004680C607047000000230024002500264E
:10019000103A28BF78C1FBD8520728BF30C148BFEA
:1001A0000B6070471FB51FBD10B510BD00F02DF8D6
:1001B0001146FFF7F7FF00F017F900F04BF803B412
:1001C000FFF7F2FF03BC00F095F800000848004775
:1001D000FEE7FEE7FEE7FEE7FEE7FEE7FEE7FEE7F7
:1001E000FEE7FEE703480449024A044B704700005B
:1001F00031010008380100203805002038010020B6
:1002000070477047704770477047754600F02CF88C
:10021000AE4605006946534620F00700854618B0F3
:1002200020B5FFF7DFFFBDE820404FF000064FF09C
:1002300000074FF000084FF0000B21F00701AC461B
:10024000ACE8C009ACE8C009ACE8C009ACE8C0093A
:100250008D46704710B50446AFF300802046BDE8D8
:100260001040FFF7ACBF000000487047D4000020EA
:100270001D49096801F0200111B31B49091D0968D6
:10028000C8B21A49098801F40041C9B91749098857
:1002900001F4804161B10A2803D00021134A118082
:1002A00020E01249098841F40041104A118019E008
:1002B0000D2806D10D49098841F480410B4A11806F
:1002C00010E00A490988C1F30D01094A5054074951
:1002D0000988491C054A118011460988C72901DD92
:1002E0000021118070470000003801400800002004
:1002F0000C00002000BF70474FF0E021096941F079
:1003000004014FF0E02211610549086011460969B6
:1003100041F0010111616FF07041516170470000BF
:100320000000002010B504464FF47A7104FB01F080
:1003300000F002F810BD000070B5034600224FF037
:10034000E02675690D4E366803FB06F44FF0E02693
:10035000B16910E04FF0E026B06988420BD08842C6
:1003600002D20E1A324402E02E1A0E4432440146E2
:10037000A24200D300E0EDE700BF70BD0000002006
:100380001CB500BF1548806940F00800134988611A
:1003900000BF00BF0846806940F04000886100BF90
:1003A0000120009000230246202101900C4800F01B
:1003B000A7F801200090002302462021019009485F
:1003C00000F09EF801222021054800F08DF801225E
:1003D0002021044800F088F81CBD000000100240F5
:1003E000000C014000180140092000F007F94820E6
:1003F000FFF782FFFFF7C4FF1BE0002220210D481A
:1004000000F072F8012220210B4800F06DF84FF443
:10041000FA70FFF787FF01222021064800F064F8F8
:1004200000222021044800F05FF84FF4FA70FFF733
:1004300079FFE2E7000C01400018014010B50246C8
:1004400000210020264B1B6843F48033244C23609A
:100450000AE000BF224B1B6803F400331BB1B1F567
:10046000004F00D904E0491C4FF6F0739942F0D3D5
:1004700000BF4FF6F073994201D301202FE04FF4F3
:100480008063174C6360921E23465B6843EA824395
:10049000636023465B6843F4803363601023114C30
:1004A000236023461B6843F0020323600C4B1B6848
:1004B00043F080730A4C236000BF094B1B685B0E3E
:1004C000002BFAD0064B5B6843F00203044C6360D8
:1004D00000BF034B5B68C3F38103022BF9D110BD4E
:1004E000001002400020024002F001031BB103692A
:1004F0000B43036103E0036943EA0143036170476F
:100500002DE9F04F0E461D46DDE909C40021002704
:100510008846002300BF64E04FF0010909FA01F7A3
:1005200006EA0708B8455BD10023012A01D0022A58
:100530000AD10CF0030305F0010943EA8903A2F193
:10054000010943EAC90318E0BAB90CB9042314E05D
:100550000823D0F80C904FF0010A0AFA01FA29EAB0
:100560000A09C0F80C90D0F80CA004F0010909FAAF
:1005700001F94AEA090AC0F80CA0072916D8D0F8F0
:1005800000904FEA810B4FF00F0A0AFA0BFA29EAA2
:100590000A09C0F80090D0F800904FEA810A03FAE7
:1005A0000AFA49EA0A09C0F8009019E0D0F8049064
:1005B000A1F1080A4FEA8A0B4FF00F0A0AFA0BFA68
:1005C00029EA0A09C0F80490D0F80490A1F1080AB9
:1005D0004FEA8A0A03FA0AFA49EA0A09C0F80490BB
:1005E000491C102998D3BDE8F08F00004A0A520236
:1005F0000243014B1A60704708ED00E010B5044655
:10060000002017490861C8601420486100208861F3
:10061000C8610846006840F001000860084640686C
:10062000104908400E494860084600680E490840D5
:100630000B4908600846006820F4802008600846DE
:10064000406820F4FE0048604FF41F008860204698
:10065000FFF7F4FE00214FF00060FFF7C7FF10BD69
:10066000001002400000FFF8FFFFF6FE8C060008B5
:10067000000000200C0000006C0100089806000833
:100680000C0000202C05000088010008000000007C
:08069000000000000000000062
:0400000508000131BD
:00000001FF
